:020000040040BA
:10000000E02B4020590F4000570F4000570F400091
:10001000570F4000570F4000570F400000000000EE
:10002000000000000000000000000000C5044000C7
:10003000570F400000000000E90440005105400057
:10004000570F4000570F4000570F4000570F400018
:10005000570F4000570F4000570F4000570F400008
:10006000570F400000000000950B4000A90B400016
:10007000BD0B4000570F4000570F4000570F400086
:10008000D10B4000E50B4000570F4000570F4000D8
:10009000570F4000570F4000570F4000D11340004A
:1000A000570F4000570F4000570F4000570F4000B8
:1000B000570F4000F9034000570F4000570F400012
:1000C000570F4000570F4000570F4000570F400098
:1000D00000000000570F400000000000570F4000D4
:1000E0000D044000570F4000570F4000570F4000CD
:1000F000570F4000570F4000570F4000570F400068
:10010000570F4000570F4000570F4000570F400057
:10011000570F400000000000000000000000000039
:10012000570F4000570F4000570F4000570F400037
:10013000570F400000000000570F4000570F4000CD
:1001400010B5054C237833B9044B13B10448AFF311
:1001500000800123237010BDC00940200000000072
:10016000DC7140000C4B43B10C480D4910B5AFF3A6
:1001700000800C48036823B910BD0A48036833B9EE
:100180007047094B002BF7D0BDE810401847064BCD
:10019000002BF5D0184700BF00000000DC714000C4
:1001A000C4094020DC7140000000000070B582B03E
:1001B000026BC36A1340019300241C4E1C4DA842DD
:1001C00014BF0020012005010BE00E2C1ED8019A5F
:1001D00004F10C0101238B40134210D10134102C87
:1001E00022D00B2CF1D8019A0123A3401342F5D061
:1001F0002B1956F82330002BF0D09847EEE72B1937
:1002000056F82330002BE9D09847E7E7019A04F12C
:100210000F0101238B401342E0D02B1956F82330F5
:10022000002BDBD09847D9E702B070BD240B4020EB
:100230000040064030B4046E01238B4024EA0304DE
:100240001578002D08BF002323430366446D4B003F
:100250000321994024EA01045178994021434165E2
:1002600030BC704700220260084B4360084B83603B
:100270004FF48023C3600223037401234374837407
:10028000C274037543758375704700BF00A3E11105
:10029000808D5B00002303700123437070470000D2
:1002A000026B12F0807201D01920704710B4012344
:1002B0000360CB7C002B18BF4FF000424B688C686A
:1002C000B3FBF4F3013B1B029BB2CC6844F4000483
:1002D00023430C7C240604F0706423434C7C2407E5
:1002E00004F040542343134343600B7D002B14BFA1
:1002F0004FF0807300230A6813434A7D002A14BF1D
:100300004FF000720022134383608B7D1B0203F4C5
:10031000407343F00C03C0F894300F4B984206D062
:100320000E4B98420DD000205DF8044B70470C4BEB
:1003300003F14001002243F8042F8B42FBD100203F
:10034000F2E7084B03F14001002243F8042B8B42F3
:10035000FBD10020E8E700BF00C00340004006409A
:10036000200B4020640B40200C4B994207D00B29F6
:100370000BD806D0012303FA01F1416270474362B2
:1003800070474FF40063436270470E2994BF0C31ED
:100390000F31012303FA01F141627047FF0F00475B
:1003A00038B5114CA0420CBF102400240C440F4D52
:1003B00045F824200AD10E4A4FF48074C2F88441D3
:1003C0005B01DBB282F82833546009E0084A4FF041
:1003D0000054C2F880415B01DBB282F81D33146027
:1003E000044B984738BD00BF00400640240B402016
:1003F00000E100E06903400008B50248024B98475D
:1004000008BD00BF00C00340AD01400008B5024870
:10041000024B984708BD00BF00400640AD014000B8
:1004200000B583B0134B98420CBF28201D20124BFF
:100430009847124B9B78FF2B1AD0EFF31083B3FA37
:1004400083F35B09019372B6BFF35F8F00220C4BFD
:100450001A700199094A93780133937029B10122E6
:10046000074B1A70BFF35F8F62B603B05DF804FBF1
:10047000FEE700BF00400640190D40001C0B402065
:100480000A00402043684B609A688A609A6851600D
:10049000996008610368013303607047036942682B
:1004A000816891608268416851605A68904205D0C5
:1004B00000220261186801381860704782685A602B
:1004C000F6E70000064B19680868B0E8F04F80F3C3
:1004D0000988BFF36F8F4FF0000080F311887047D9
:1004E000DC094020704700BFEFF30980BFF36F8F36
:1004F000154B1A681EF0100F08BF20ED108A20E976
:10050000F04F10604DF8043D4FF0800072B680F35C
:100510001188BFF34F8FBFF36F8F62B600F0F0F812
:100520004FF0000080F3118808BC19680868B0E833
:10053000F04F1EF0100F08BFB0EC108A80F309884E
:10054000BFF36F8F704700BFDC094020704700BFCA
:1005500008B5EFF311834FF0800272B682F3118871
:10056000BFF36F8FBFF34F8F62B6054B984718B13B
:100570004FF08052034B1A60002383F3118808BDAB
:10058000B505400004ED00E0084B1B681B683BB15B
:10059000064B1B68DB68DB685A68054B1A607047BE
:1005A0004FF0FF32024B1A60704700BFE009402055
:1005B000580A40202DE9F047424B1B68002B78D1A8
:1005C000414B1A6801321A601E68D6B93F4B1B684E
:1005D0001B6853B14FF0800372B683F31188BFF3E9
:1005E0006F8FBFF34F8F62B6FEE7384A1168384B02
:1005F000186810601960374A136801331360364B6E
:100600009847364B1B689E4218D20024344B1B6817
:10061000DB6A03EB8303334A52F82330022B28BFF3
:100620000124314B1B680BB9304B9847304B1B688A
:10063000002B0CBF20460120BDE8F0870024DFF826
:100640008C90DFF8B8802B4F1FE04FF0FF32234B28
:100650001A60DBE7214A1360D8E705F11800C047AC
:10066000E86A3A680123834013433B6000EB800053
:1006700051461C4B03EB80001F4B9847184B1B68DF
:10068000EA6ADB6A9A4228BF0124D9F800301B6865
:10069000002BDAD0D9F80030DB68DD686B689E4249
:1006A000D8D305F1040A5046C047AB6A002BD4D119
:1006B000D6E70D4A1368013313600C4B98470024AA
:1006C000B4E700BF500A4020600A4020E009402003
:1006D000E40940205C0A402089054000580A402077
:1006E000DC094020E80940204C0A4020A9144000C1
:1006F000640A4020540A4020850440009D044000C4
:100700002D4B1B68002B2CD110B500222B4B1A60EF
:100710002B4B1B681B6B1A68B2F1A53F03D15A68BB
:10072000B2F1A53F21D0264B186819683431254B0A
:100730009847254B1B68B3FA83F3DBB2C3F11F0361
:1007400003EB8301214A52F82120BAB94FF080030C
:1007500072B683F31188BFF36F8FBFF34F8F62B60A
:10076000FEE70122154B1A6070479A68B2F1A53F67
:10077000D9D1DB68B3F1A53FD5D1DAE7134A9900A7
:10078000C81802EB8000446864684460194402465B
:100790000832944209D003EB83030C4A02EB830333
:1007A0005B68DA68064B1A6010BD6068074A02EBA6
:1007B00081025060EFE700BF500A4020640A4020E9
:1007C000DC09402091144000540A4020E8094020F0
:1007D00008B50348034B98470022034B1A7008BD25
:1007E000D65E070601004020A40B402010B510483B
:1007F000104B98473E2100200F4B98470F4CA047C5
:100800000028FCD00E4B98470E4A0F4B9A620F4CB3
:10081000A0470028FCD002200D4B984700200D4B2C
:1008200098470D4B98470248024B984710BD00BFB0
:1008300000A3E1112D114000950C4000E90C40008F
:10084000F90C4000013F182000060E40090D400041
:10085000F90B4000310C4000211040002DE9F0411F
:1008600080B90C469046002A0FDD8F18084E094DBE
:10087000306821462B6898470134BC42F8D1404685
:10088000BDE8F0814FF0FF38F9E78046F7E700BF99
:10089000B00B4020A80B40200138022815D82DE9C4
:1008A000F0410E4614469AB10D46DFF838800C4FE1
:1008B000D8F8000015F8011B3B68984700280ADBB0
:1008C000A81B013CF4D1BDE8F0814FF0FF30704728
:1008D0001046BDE8F0814FF0FF30BDE8F08100BF69
:1008E000AC0B4020B00B4020F8B54FF400425C4BFD
:1008F0005A60BFF34F8FBFF36F8F5A4B0022C3F87C
:1009000050225A6942F400325A61BFF34F8FBFF34D
:100910006F8FD3F88070C7F34E3607F007000430AE
:10092000C7F3C907B7FA87FE0EF01F0EBFF34F8F4C
:100930004FF0FF3404FA00FC06FA00F004FA0EF45B
:1009400007FA0EFE1D463A46734640EA0301C5F813
:100950006012013A2344B2F1FF3FF6D1013E6044F8
:10096000B6F1FF3FEFD1BFF34F8F3E4B5A6942F4D0
:1009700080325A61BFF34F8FBFF36F8F3A4A3B49C2
:100980005160A1F580715160BFF34F8FBFF36F8F3E
:10099000D3F8902222F00102C3F89022D3F89422D7
:1009A00022F00102C3F89422BFF34F8FBFF36F8F81
:1009B0000A202F4CA0470B20A0470C20A047102056
:1009C000A0471120A0472B4B4FF480721A61C3F847
:1009D000A0201A63A3F580634FF400625A61C3F844
:1009E000A0205A66C3F890205A651A62C3F8842082
:1009F000196F21F400611967596F21F4006159677B
:100A0000C3F8C020C3F8D420C3F8B0204FF40012BC
:100A10001A66C3F890205A655A62C3F88020196F8D
:100A200021F400111967596F21F4001159675A60B8
:100A3000114AD2F8143143F01003C2F814310F4BAD
:100A400010221A66C3F890205A655A62C3F88020B3
:100A5000196F11431967596F114359675A60F8BDEF
:100A600050180E4000ED00E0000C0E400C08005A3B
:100A7000190D400000120E400080084000100E408A
:100A80004264B1F1C05F3AD013D8B1F1006F25D004
:100A9000B1F1805F0AD1036F13430367436F416F66
:100AA0000B4023EA02034367426070470029FBD1F1
:100AB0007047B1F1205F21D009D8B1F1005FF3D1C7
:100AC000036F13430367436F13434367ECE7B1F1CD
:100AD000405F13D0B1F1605F10D0E5E710B4016F53
:100AE000046FD34321401C4619400167436F416F97
:100AF0000B402340436742605DF8044B7047036F2F
:100B0000016F0B4023EA02030367436F13434367FC
:100B1000CAE710B4019C41644CB901664BB1016550
:100B20004AB94163016101605DF8044B7047416659
:100B3000F4E74165F4E70163F4E7C06C7047806C4B
:100B4000704700002DE9F041044688460E4B984757
:100B5000054620460D4B9847054013D00C4C04F138
:100B6000600603E0B4420DD010345DB1206840450A
:100B7000F8D161682942F5D0E3689847636825EAAF
:100B80000305EFE7BDE8F0813B0B40003F0B400061
:100B9000680A402008B50A210148024B984708BD61
:100BA000000E0E40450B400008B50B210148024BDA
:100BB000984708BD00100E40450B400008B50C21B9
:100BC0000148024B984708BD00120E40450B4000FB
:100BD00008B510210148024B984708BD00140E408B
:100BE000450B400008B511210148024B984708BD4C
:100BF00000160E40450B4000032811D0042812D0E7
:100C000002280CBF4FF480710021084A136B23F4B3
:100C100040730B431363936E13F0080FFBD07047C0
:100C20004FF44071F1E74FF40071EEE700060E401B
:100C3000174A136B23F0700318431063936E13F07D
:100C4000080F0AD14FF4805311498A6E12F0080F31
:100C500003D1013BF9D1012070470D4A136B23F0FA
:100C6000030343F002031363936E13F0080F0AD1DA
:100C70004FF4805306498A6E12F0080F05D1013BEC
:100C8000F9D101207047002070470020704700BF55
:100C900000060E40A0B90E48036A090289B20D4A47
:100CA0001A400D4B1343194301620246936E13F031
:100CB000010FFBD0064A116A084B0B4313627047C1
:100CC00003490B6A064A1A40064B13430B627047EE
:100CD00000060E40FCFFC8FF01003700000037018E
:100CE000FCFFC8FE02003701024B986E00F4803012
:100CF000704700BF00060E404FF00052014B9A6251
:100D0000704700BF00060E40024B986E00F00200D4
:100D1000704700BF00060E403F281ED81F280CD881
:100D2000114B9A6901238340934318D0012303FA9E
:100D300000F00D4B18610020704720380A4BD3F8A3
:100D400008210123834093430BD0012303FA00F0D1
:100D5000054BC3F8000100207047012070470020B8
:100D600070470020704700BF00060E4010B4890194
:100D70004318022444504FF0FF319962196A5A60B7
:100D80005DF8044B7047890105234350704700EB21
:100D900081114A61704700EB8111CA61704700EB15
:100DA00081114A62704700EB8111086A7047F0B404
:100DB00086B0022401940824029420240394802401
:100DC00004940A9CE40B0594B0EB510F14D84C0C1E
:100DD000A04217D2012501AF57F82540B1FBF4F42A
:100DE000260C84420AD386420DD90135052DF3D154
:100DF000002006B0F0BC70470020FAE70020F8E7BA
:100E00000120F6E700252AB106A901EB850151F87A
:100E1000141C1160002BF3D01D600120E9E7436929
:100E200013F0020F02D0C16100207047012070470B
:100E3000436913F0010F03D083690B7000207047E2
:100E40000120704710B40B01934214D9C9004B081C
:100E500003EBC202B2FBF1F2D3085C1E4FF6FE7147
:100E60008C4201D9012017E0416841F40021416022
:100E70000CE0012010E0590801EBC202B2FBF3F2D2
:100E8000D3085C1E4FF6FE718C42F2D8120402F4B5
:100E9000E0221A43026200205DF8044B7047000014
:100EA000084BC0F8E4300023436043628362882328
:100EB0000360242303604FF4807303604FF4002326
:100EC000036070470041535570B505460C46164601
:100ED0000F4B984700220F4B1A60A4B1324621688D
:100EE00028460D4B9847024678B96368A1680B43C2
:100EF00021690B43E1680B4306490B6069680B43AA
:100F00006B60104670BD0122FBE70122F9E700BFCC
:100F1000A10E4000D80A4020450E40004023036047
:100F20007047102303607047436913F0020F04D029
:100F3000C1F30801C1610020704701207047436977
:100F400013F0010F05D08369C3F308030B60002081
:100F5000704701207047FEE700B583B0254B264A55
:100F60009A4210D0254B234A9A420CD2013B9B1A3D
:100F700023F00303043313441F4951F8040B42F8D0
:100F8000040B9A42F9D11E4B1E4A9A420AD2013BE7
:100F90009B1A23F0030304331344002142F8041B7B
:100FA0009342FBD1184A194B23F07F039360EFF370
:100FB0001083B3FA83F35B09019372B6BFF35F8FBB
:100FC0000022134B1A700199124A136843F47003FC
:100FD0001360BFF34F8FBFF36F8F29B101220C4B0A
:100FE0001A70BFF35F8F62B60B4B98470B4B984755
:100FF000FEE700BF00004020DC714000C009402037
:10100000DC0B4020C009402000ED00E00000400063
:101010000A00402088ED00E0191F4000AD14400098
:101020003B4B1B6B03F00303012B1DD083B1022B41
:1010300036D0374B1B6B03F07003702B5FD0344BF3
:101040001A6B3449C2F302120B68D3400B6070472D
:10105000314B5B6913F0800F14BF4FF400424FF423
:10106000FA422C4B1A60E4E7294B1B6A13F0807F8D
:1010700003D02A4A274B1A60DBE7294A254B1A601E
:10108000234B1B6A03F07003102B05D0202BD0D10B
:10109000224A204B1A60CCE7224A1E4B1A60C8E74E
:1010A0001B4B1B6A13F0807F16D01C4A194B1A6029
:1010B000174B1B6B03F00303022BBAD1144A916A3E
:1010C000926A1448C1F30A41036801FB0333D2B2A8
:1010D000B3FBF2F30360ACE7114A0E4B1A600C4B02
:1010E0001B6A03F07003102B05D0202BE0D10B4AB4
:1010F000084B1A60DCE70B4A064B1A60D8E7054A32
:1011000013680949A1FB03135B081360704700BF14
:1011100000060E400C00402010180E40001BB700C7
:1011200000093D0000127A00ABAAAAAA124B98420D
:1011300011D9124B984213D9114B984214D9114B23
:10114000984215D9104B984294BF4FF004220F4A91
:101150000F4B1A6070474FF080620D4B1A6070475A
:101160000C4A0B4B1A6070470B4A094B1A607047C8
:101170000A4A074B1A607047FF2C3101FF5962027F
:10118000FF869303FFB3C404FFE0F50500050004E8
:10119000000C0E40000100040002000400030004E3
:1011A0000A4B1B6853B1094B1B681A180849914236
:1011B00008DB1046054A106018467047054A034B85
:1011C0001A60F0E74FF0FF30704700BFDC0A4020A4
:1011D000FCFF4520E02D40204FF0FF3070474FF4DA
:1011E00000534B600020704701207047002070477B
:1011F00010B5064B01245C669A6E054B1A600548D3
:10120000054B9847054B1C7010BD00BF00C0034044
:10121000E00A4020906E4000FD214000E40A40209A
:10122000F0B583B005460C46002301932A4B984243
:1012300013D02A4B984218D0294B98421DD0294BE5
:101240009D4222D0284B9D4227D0284B9D422ED034
:10125000274B9D4235D003B0F0BD1F46254E214699
:101260003846B0470028FAD1E9E71F46214E21460B
:101270003846B0470028FAD1E4E71F461D4E214604
:101280003846B0470028FAD1DFE71F46194E2146FD
:101290003846B0470028FAD1DAE71E46164D01A9B4
:1012A0003046A8470028FAD1019B2370D3E71E4699
:1012B000114D01A93046A8470028FAD1019B23709F
:1012C000C9E71E460C4D01A93046A8470028FAD1AF
:1012D000019B2370BFE700BF00080E40000A0E40CC
:1012E000001A0E40001C0E400040024000800240E8
:1012F00000C00240310E40003F0F400070B50C4668
:101300002A4B984213D02A4B984219D0294B984225
:101310001FD0294B984225D0284B98422BD0284BE0
:10132000984231D0274B984237D0002070BD1E46DE
:10133000254D21463046A8470028FAD1012070BD2E
:101340001E46214D21463046A8470028FAD10120EB
:1013500070BD1E461C4D21463046A8470028FAD1D4
:10136000012070BD1E46184D21463046A847002872
:10137000FAD1012070BD1E46144D21463046A847C3
:101380000028FAD1012070BD1E46104D214630467E
:10139000A8470028FAD1012070BD1E460B4D2146FA
:1013A0003046A8470028FAD1012070BD00080E4041
:1013B000000A0E40001A0E40001C0E400040024081
:1013C0000080024000C002401F0E4000290F400074
:1013D00000B583B000210548054B984701900548AA
:1013E000054B9847019B03B05DF804FB00C000402B
:1013F000A70D4000986E4000FD214000F0B585B07B
:1014000004460E4615461F460846184B984718498D
:10141000009102AB03AA3846164FB847029A42F42D
:101420001C2229462046144B98474AF6A8222946F2
:101430002046124B98474FF6FC7229462046104B27
:10144000984773B25B0906F01F06012202FA06F6FE
:101450000C4A42F823601022294620460A4B98473E
:1014600029462046094B984705B0F0BD190D4000AC
:1014700000A3E111AF0D40006D0D40008F0D400045
:10148000970D400000E100E09F0D4000870D4000F7
:1014900008B50A4601460248024B9847FEE700BFDE
:1014A0000C6F4000392140007047000080B58AB0C1
:1014B0004A4B98474A4B98470E204A4EB0474A4CF1
:1014C0004A4B1C604A4A4B4B1A604B4A4B4B1A60C2
:1014D0004FF4E1330493C02305934FF40063069364
:1014E0000025079508950E20B047454A04A92046D7
:1014F000444B98472046444B98472046434B9847D7
:10150000434F3B6829469868424CA0473B682946B0
:101510005868A0474048414B98471D20B047404C71
:101520002046404B984704A83F4B984704A92046C3
:101530003E4B9847636823F08F036360636843F012
:101540000303636001233A4A19462046394FB847DE
:1015500003A8394B98478DF80D5003AA0121204666
:10156000364B9847012767664FF40073E3664FF0E8
:101570000208C4F8148005232A4617213048DFF8F2
:10158000F090C8470A20B0472E4E00952B462A46B9
:10159000394630462C4DA8473A464FF080513046E8
:1015A0002A4B9847C4F80080294B9847294E2A4C6B
:1015B0002A4D01E02846A047294B1B78002BF9D083
:1015C0000022274B1A70274B19682748274B98474A
:1015D0000222134B1A603046A047EBE7ED074000AC
:1015E000E9084000190D400000800240B00B402087
:1015F000FD124000AC0B402021124000A80B4020FF
:1016000080D1F008C90E40001D0F4000230F40009C
:10161000100040200D224000A06E4000FD2140003F
:1016200000C003402104400065024000A1024000C8
:10163000F1114000A1034000950240003502400036
:1016400000C00040000E0E40130B4000810A400015
:10165000D10740006BAF030301004020D65E0706B0
:10166000E40A4020E00A4020FC6E4000392140009E
:10167000FD13400081F0004102E000BF83F0004311
:1016800030B54FEA41044FEA430594EA050F08BF1D
:1016900090EA020F1FBF54EA000C55EA020C7FEAE1
:1016A000645C7FEA655C00F0E2804FEA5454D4EB5E
:1016B0005555B8BF6D420CDD2C4480EA020281EA28
:1016C000030382EA000083EA010180EA020281EA60
:1016D0000303362D88BF30BD11F0004F4FEA0131B2
:1016E0004FF4801C4CEA113102D0404261EB4101C1
:1016F00013F0004F4FEA03334CEA133302D0524247
:1017000063EB430394EA050F00F0A780A4F1010402
:10171000D5F1200E0DDB02FA0EFC22FA05F280183C
:1017200041F1000103FA0EF2801843FA05F3594122
:101730000EE0A5F120050EF1200E012A03FA0EFCA1
:1017400028BF4CF0020C43FA05F3C01851EBE371CB
:1017500001F0004507D54FF0000EDCF1000C7EEBE8
:1017600000006EEB0101B1F5801F1BD3B1F5001F26
:101770000CD349085FEA30004FEA3C0C04F1010445
:101780004FEA445212F5800F80F09A80BCF1004F6E
:1017900008BF5FEA500C50F1000041EB045141EAF0
:1017A000050130BD5FEA4C0C404141EB010111F4F1
:1017B000801FA4F10104E9D191F0000F04BF01469C
:1017C0000020B1FA81F308BF2033A3F10B03B3F17A
:1017D00020020CDA0C3208DD02F1140CC2F10C020A
:1017E00001FA0CF021FA02F10CE002F11402D8BF68
:1017F000C2F1200C01FA02F120FA0CFCDCBF41EA34
:101800000C019040E41AA2BF01EB0451294330BD02
:101810006FEA04041F3C1CDA0C340EDC04F11404DF
:10182000C4F1200220FA04F001FA02F340EA0300B6
:1018300021FA04F345EA030130BDC4F10C04C4F1FC
:10184000200220FA02F001FA04F340EA03002946DC
:1018500030BD21FA04F0294630BD94F0000F83F426
:10186000801306BF81F480110134013D4EE77FEA09
:10187000645C18BF7FEA655C29D094EA050F08BF55
:1018800090EA020F05D054EA000C04BF1946104636
:1018900030BD91EA030F1EBF0021002030BD5FEA7A
:1018A000545C05D14000494128BF41F0004130BDA2
:1018B00014F580043CBF01F5801130BD01F00045F6
:1018C00045F0FE4141F470014FF0000030BD7FEA69
:1018D000645C1ABF194610467FEA655C1CBF0B4664
:1018E000024650EA013406BF52EA033591EA030F7B
:1018F00041F4002130BD00BF90F0000F04BF002173
:10190000704730B54FF4806404F132044FF00005A5
:101910004FF0000150E700BF90F0000F04BF00211E
:10192000704730B54FF4806404F1320410F0004584
:1019300048BF40424FF000013EE700BF42004FEA7F
:10194000E2014FEA31014FEA02701FBF12F07F43FC
:1019500093F07F4F81F06051704792F0000F14BFF9
:1019600093F07F4F704730B54FF4607401F000453D
:1019700021F0004120E700BF50EA010208BF704794
:1019800030B54FF000050AE050EA010208BF704789
:1019900030B511F0004502D5404261EB41014FF4F2
:1019A000806404F132045FEA915C3FF4DCAE4FF0F6
:1019B00003025FEADC0C18BF03325FEADC0C18BFDD
:1019C000033202EBDC02C2F1200300FA03FC20FA2E
:1019D00002F001FA03FE40EA0E0021FA02F114447B
:1019E000C1E600BF70B54FF0FF0C4CF4E06C1CEA90
:1019F00011541DBF1CEA135594EA0C0F95EA0C0F05
:101A000000F0DEF82C4481EA030621EA4C5123EA77
:101A10004C5350EA013518BF52EA033541F48011A6
:101A200043F4801338D0A0FB02CE4FF00005E1FB59
:101A300002E506F00042E0FB03E54FF00006E1FBA3
:101A400003569CF0000F18BF4EF0010EA4F1FF04E6
:101A5000B6F5007F64F5407404D25FEA4E0E6D4126
:101A600046EB060642EAC62141EA55514FEAC52037
:101A700040EA5E504FEACE2EB4F1FD0C88BFBCF5B3
:101A8000E06F1ED8BEF1004F08BF5FEA500E50F164
:101A9000000041EB045170BD06F0004646EA01012A
:101AA00040EA020081EA0301B4EB5C04C2BFD4EB5C
:101AB0000C0541EA045170BD41F480114FF0000E55
:101AC000013C00F3AB8014F1360FDEBF002001F0C3
:101AD000004170BDC4F10004203C35DA0C341BDC3D
:101AE00004F11404C4F1200500FA05F320FA04F00F
:101AF00001FA05F240EA020001F0004221F0004143
:101B000010EBD37021FA04F642EB06015EEA430EB5
:101B100008BF20EAD37070BDC4F10C04C4F12005E5
:101B200000FA04F320FA05F001FA04F240EA020098
:101B300001F0004110EBD37041F100015EEA430E69
:101B400008BF20EAD37070BDC4F1200500FA05F289
:101B50004EEA020E20FA04F301FA05F243EA020308
:101B600021FA04F001F0004121FA04F220EA020017
:101B700000EBD3705EEA430E08BF20EAD37070BD5D
:101B800094F0000F0FD101F00046400041EB01013D
:101B900011F4801F08BF013CF7D041EA060195F01F
:101BA000000F18BF704703F00046520043EB0303D9
:101BB00013F4801F08BF013DF7D043EA06037047C6
:101BC00094EA0C0F0CEA135518BF95EA0C0F0CD0D1
:101BD00050EA410618BF52EA4306D1D181EA030117
:101BE00001F000414FF0000070BD50EA410606BF11
:101BF0001046194652EA430619D094EA0C0F02D156
:101C000050EA013613D195EA0C0F05D152EA03369A
:101C10001CBF104619460AD181EA030101F00041B8
:101C200041F0FE4141F470014FF0000070BD41F001
:101C3000FE4141F4780170BD70B54FF0FF0C4CF4DB
:101C4000E06C1CEA11541DBF1CEA135594EA0C0FFA
:101C500095EA0C0F00F0A7F8A4EB050481EA030E47
:101C600052EA03354FEA013100F088804FEA03332E
:101C70004FF0805545EA131343EA12634FEA0222FC
:101C800045EA111545EA10654FEA00260EF00041BD
:101C90009D4208BF964244F1FD0404F5407402D20F
:101CA0005B084FEA3202B61A65EB03055B084FEAA0
:101CB00032024FF480104FF4002CB6EB020E75EB9D
:101CC000030E22BFB61A754640EA0C005B084FEAC5
:101CD0003202B6EB020E75EB030E22BFB61A754642
:101CE00040EA5C005B084FEA3202B6EB020E75EB8D
:101CF000030E22BFB61A754640EA9C005B084FEA05
:101D00003202B6EB020E75EB030E22BFB61A754611
:101D100040EADC0055EA060E18D04FEA051545EA00
:101D200016754FEA06164FEAC30343EA52734FEAA9
:101D3000C2025FEA1C1CC0D111F4801F0BD141EA22
:101D400000014FF000004FF0004CB6E711F4801F87
:101D500004BF01430020B4F1FD0C88BFBCF5E06F67
:101D60003FF6AFAEB5EB030C04BFB6EB020C5FEA77
:101D7000500C50F1000041EB045170BD0EF0004ECC
:101D80004EEA113114EB5C04C2BFD4EB0C0541EAFE
:101D9000045170BD41F480114FF0000E013C90E6FB
:101DA00045EA060E8DE60CEA135594EA0C0F08BFBF
:101DB00095EA0C0F3FF43BAF94EA0C0F0AD150EABE
:101DC00001347FF434AF95EA0C0F7FF425AF104651
:101DD00019462CE795EA0C0F06D152EA03353FF479
:101DE000FDAE1046194622E750EA410618BF52EAF6
:101DF00043067FF4C5AE50EA41047FF40DAF52EACA
:101E000043057FF4EBAE12E74FF0FF3C06E000BF66
:101E10004FF0010C02E000BF4FF0010C4DF804CD73
:101E20004FEA410C7FEA6C5C4FEA430C18BF7FEA33
:101E30006C5C1BD001B050EA410C0CBF52EA430C61
:101E400091EA030F02BF90EA020F0020704710F1E1
:101E5000000F91EA030F58BF994208BF90422CBF70
:101E6000D8176FEAE37040F0010070474FEA410C69
:101E70007FEA6C5C02D150EA013C07D14FEA430C87
:101E80007FEA6C5CD6D152EA033CD3D05DF8040BF8
:101E9000704700BF8446104662468C46194663462A
:101EA00000E000BF01B5FFF7B7FF002848BF10F101
:101EB000000F01BD4DF808EDFFF7F4FF0CBF012046
:101EC00000205DF808FB00BF4DF808EDFFF7EAFFC2
:101ED00034BF012000205DF808FB00BF4DF808ED7D
:101EE000FFF7E0FF94BF012000205DF808FB00BF72
:101EF0004DF808EDFFF7CEFF94BF012000205DF8FC
:101F000008FB00BF4DF808EDFFF7C4FF34BF012008
:101F100000205DF808FB00BF70B50F4E0F4D761B1B
:101F2000B61018BF002405D0013455F8043B98477B
:101F3000A642F9D10A4E0B4D761B05F039F9B610C1
:101F400018BF002406D0013455F8043B9847A64238
:101F5000F9D170BD70BD00BFBC714000BC714000C4
:101F6000C4714000BC714000844641EA000313F094
:101F700003036DD1403A41D351F8043B40F8043B90
:101F800051F8043B40F8043B51F8043B40F8043B53
:101F900051F8043B40F8043B51F8043B40F8043B43
:101FA00051F8043B40F8043B51F8043B40F8043B33
:101FB00051F8043B40F8043B51F8043B40F8043B23
:101FC00051F8043B40F8043B51F8043B40F8043B13
:101FD00051F8043B40F8043B51F8043B40F8043B03
:101FE00051F8043B40F8043B51F8043B40F8043BF3
:101FF00051F8043B40F8043B403ABDD2303211D393
:1020000051F8043B40F8043B51F8043B40F8043BD2
:1020100051F8043B40F8043B51F8043B40F8043BC2
:10202000103AEDD20C3205D351F8043B40F8043B92
:10203000043AF9D2043208D0D2071CBF11F8013B90
:1020400000F8013B01D30B8803806046704700BF56
:10205000082A13D38B078DD010F003038AD0C3F165
:102060000403D21ADB071CBF11F8013B00F8013B47
:1020700080D331F8023B20F8023B7BE7043AD9D306
:10208000013A11F8013B00F8013BF9D20B780370DB
:102090004B7843708B7883706046704770B48607C6
:1020A00046D0541E002A41D0CAB2034602E014F1C1
:1020B000FF343BD303F8012B9D07F8D1032C2ED915
:1020C000CDB245EA05250F2C45EA054519D903F19E
:1020D00010022646103E0F2E42F8105C42F80C5CAF
:1020E00042F8085C42F8045C02F11002F2D8A4F154
:1020F000100222F00F0204F00F041032032C1344DC
:102100000DD91E462246043A032A46F8045BFAD843
:10211000221F22F003020432134404F003042CB102
:10212000C9B21C4403F8011B9C42FBD170BC704730
:1021300014460346C2E700BF0FB400B5074983B099
:1021400004AB086853F8042B8168019300F0A6F9EA
:1021500003B05DF804EB04B0704700BF10004020EE
:10216000F0B5054689B008460C4600F029F9AB6B7E
:10217000214F04940126441C04A9022203940590D3
:10218000AC68069707960191029253B3636E13F001
:10219000010FB4F90C309AB201D1900525D5910404
:1021A00006D4626E43F4005322F40052A3816266A7
:1021B000284601AA214602F011FF636E00280CBFD9
:1021C0000A254FF0FF35DA0702D4A3899B0502D513
:1021D000284609B0F0BDA06D03F0C4F8284609B048
:1021E000F0BD284602F072FDD0E7A06D03F0B8F80C
:1021F000B4F90C309AB2D2E7286F4000024B014686
:102200001868FFF7ADBF00BF1000402000290CBFC9
:10221000022200224FF4806300F000B82DE9F04361
:10222000614C256883B004460F4690461E4615B1A2
:10223000AB6B002B64D0B8F1020F06D0B8F1010FE0
:1022400000F29F80002EC0F29C80636ED80734D5C8
:102250002146284602F0E2FC216B41B104F1400323
:10226000994202D0284602F0D3FD00232363B4F93B
:102270000C300022A26162601A063AD423F44A6349
:1022800023F00303B8F1020FA3811DD001AB6A460E
:102290002146284603F068F8A3891843A081002E40
:1022A00032D1009E304603F0D7F8074600286BD0A5
:1022B000A38943F08003A38128E0A3899905C7D4AB
:1022C000A06D03F04DF8C3E70025616E002604F110
:1022D000430243F002030120A660CE07A3812260DF
:1022E0002261606101D498053ED5284603B0BDE85F
:1022F000F0832169284602F08BFDB4F90C30BDE76C
:10230000284602F0E3FC96E7002FCBD0AB6B002B06
:1023100033D0009BB4F90C2027609E421CBF42F4CE
:102320000062A281B8F1010F04BF42F00102A28154
:1023300092B212F00803276166610ED0D1071AD558
:10234000656E7642002315F00105A661A36009D0F1
:102350000025284603B0BDE8F083A360656E15F044
:102360000105F5D19305C0D4A06D02F0FBFF28460E
:1023700003B0BDE8F083A660F0E7284602F0A6FCB3
:10238000C7E74FF0FF35B0E7DDF80090B14504D066
:10239000484603F061F8074620B9B4F90C304FF015
:1023A000FF3592E74E4683E7100040200000000012
:1023B000000000000000000000000000000000001D
:1023C00090F800F06DE9024520F007016FF0000C75
:1023D00010F0070491F820F040F049804FF000041D
:1023E0006FF00700D1E9002391F840F000F10800F8
:1023F00082FA4CF2A4FA8CF283FA4CF3A2FA8CF330
:102400004BBBD1E9022382FA4CF200F10800A4FA96
:102410008CF283FA4CF3A2FA8CF3E3B9D1E90423EA
:1024200082FA4CF200F10800A4FA8CF283FA4CF321
:10243000A2FA8CF37BB9D1E9062301F1200182FADB
:102440004CF200F10800A4FA8CF283FA4CF3A2FAE1
:102450008CF3002BC6D0002A04BF04301A4612BAEF
:10246000B2FA82F2FDE8024500EBD2007047D1E9F2
:10247000002304F00305C4F100004FEAC50514F081
:10248000040F91F840F00CFA05F562EA05021CBF52
:1024900063EA050362464FF00004A9E72DE9F04F17
:1024A000C1B01D468A4691460446089002F046FF98
:1024B000036815931846FFF783FF0E9514901CB11F
:1024C000A36B002B00F05F82DAF86430BAF90C20BD
:1024D00013F0010F93B202D1990540F175829F0468
:1024E0000AD4DAF8641042F4005321F40051AAF837
:1024F0000C30CAF864109BB21E0740F12382DAF850
:102500001020002A00F01E8203F01A020A2A00F0AE
:102510003E8200231846119313931293259324931C
:10252000189319930B9330AB2393984616901790FA
:10253000CDF828A099F800304C46EBB1252B02D1FC
:102540001AE0252B03D014F8013F002BF9D1A4EB9E
:1025500009058DB1249B259AC8F8009001332A44BF
:10256000072BC8F804502592249300F3018208F148
:1025700008080B9B2B440B932378002B00F0F0836F
:1025800000231A468DF86F3019460C939B466678E7
:102590004FF0FF3304F10109099309F10109A6F194
:1025A0002003582B00F2BF83DFE813F0E002BD03E5
:1025B000BD034F03BD03BD03BD03BD03BD03BD0389
:1025C00054030803BD031A02E802BD0303033A03E0
:1025D0003A033A033A033A033A033A033A033A0313
:1025E000BD03BD03BD03BD03BD03BD03BD03BD03EB
:1025F000BD03BD0349036203BD036203BD03BD0305
:10260000BD03BD03A203BD03BD036F00BD03BD0336
:10261000BD03BD03BD035900BD03BD031E03BD03C0
:10262000BD03BD03BD03BD03BD03BD03BD03BD03AA
:10263000BD0324037302620362036203B7027302E1
:10264000BD03BD03BC02BD03C90271000D034702F7
:10265000BD035202BD035B00BD03BD031F024BF06F
:10266000100B1BF0200F40F053830E9A1BF0100F3D
:10267000134640F0B4851BF0400F00F0B08514887D
:102680000432002501230E9214E04BF0100B1BF0D6
:10269000200340F032831BF0100240F089851BF0CC
:1026A000400300F085850E9913460A4604320C88D3
:1026B0000E9200254FF0000A8DF86FA009994A1C70
:1026C00000F00B822BF08002069254EA050240F0E3
:1026D0000A82002940F06F84002B40F02D851BF00A
:1026E00001030D9300F0688640AF302307F8413DA9
:1026F000099B0D9A9342B8BF13460793002310938A
:10270000BAF1000F02D0079B01330793069B13F029
:1027100002030F9302D0079B02330793069B13F02B
:10272000840540F01B830C9B079AA3EB020BBBF1C3
:10273000000F40F31383BBF1100F2599249A28DD75
:1027400043461024A846DDF820A00A9D06E0ABF120
:10275000100BBBF1100F03F1080318DD0132B9486B
:1027600024921031072A259183E81100EFDD23AA76
:102770002946504603F03AFF002840F06A83ABF147
:10278000100BBBF1100F2599249A30ABE6DC4546BF
:1027900098460132AB4B24920BEB0104072A259497
:1027A00088E8080800F3CD849DF86FA008F10808B8
:1027B000BAF1000F0ED0249B013301340DF16F01EB
:1027C0000122072B2594249388E8060000F30A844D
:1027D00008F108080F9B6BB1249B013302341CA93C
:1027E0000222072B2594249388E8060000F3068430
:1027F00008F10808802D00F02E83099B0D9AA3EBA9
:10280000020ABAF1000F3BDDBAF1100F249B8E4D86
:102810002BDD42462146B0464FF0100B2E46089C59
:102820000A9D06E0AAF1100ABAF1100F02F108029F
:1028300017DD01331031072B2591249382E84008DE
:10284000F0DD23AA2946204603F0D0FE002840F000
:102850000083AAF1100ABAF1100F2599249B30AA1F
:10286000E7DC35460C464646904601335444072B78
:102870002594249388E8200400F3A98308F108082C
:10288000069BDB0500F18582249B0D99C8F800703A
:1028900001330C44072B2594C8F80410249300F34B
:1028A000758308F10808069B59073BD50C9B079ACE
:1028B0009D1A002D36DD102D249B21DD1026089F4A
:1028C000DDF828A004E0103D102D08F1080817DD00
:1028D00001335C4A24931034072B259488E8440084
:1028E000F1DD23AA5146384603F080FE002840F06F
:1028F0003F82103D102D259C249B0DF1C008E7DC84
:102900000133504A24932C44072B259488E8240053
:1029100008DD23AA0A99089803F068FE002840F011
:102920004783259C0B9B0C9A07998A42ACBF9B1846
:102930005B180B93002C40F03383002324930DF19C
:10294000C008F7E55146089801F096F8002838D0FD
:10295000DAF86430DD0704D4BAF80C309C0540F195
:10296000CA854FF0FF330B930B9841B0BDE8F08F51
:1029700023AA0A99089803F039FE002840F018832A
:102980000DF1C008F5E5089802F0A0F99CE5BAF948
:102990000E20002AFFF6BDADDAF86420D00705D47A
:1029A000990503D4DAF8580002F0DCFC2B464A46BD
:1029B0005146089801F01EF80B900B9841B0BDE805
:1029C000F08FBAF80C309FE5DAF8580002F0C8FC36
:1029D000BAF90C2093B282E50C980E9340420C9009
:1029E0004BF0040B99F80060D7E5002A40F0DF8730
:1029F000164B18931BF0200F40F0B9840E9A1BF071
:102A0000100F134640F0DC831BF0400F00F0D8831A
:102A1000043314880E9300251BF0010F00F022836D
:102A200054EA050300F01E8330238DF870308DF8D2
:102A300071604BF0020B02233CE64BF0200B99F83F
:102A40000060AAE5706F4000806F4000506F40004A
:102A50000E9A176800248DF86F40151D002F00F0A6
:102A60004E86099A531C00F0CC852146384602F068
:102A7000C7FF002800F09786C31B0D9309940E959D
:102A8000CDF818B023EAE373079310949DF86FA074
:102A900036E6002A40F096871BF0200F40F05A845B
:102AA0001BF0100F40F0A2831BF0400F00F09E833C
:102AB0000E99B1F900400431E51722462B460E91DC
:102AC000002A73F10003C0F2878409999DF86FA072
:102AD0004A1C4FF001037FF4F5AD54EA050200F003
:102AE0006C82CDF818B0012B00F00883022B40F067
:102AF0009582189830AF230904F00F0143EA05735B
:102B00002A091C461546435C07F8013D54EA0503B3
:102B1000F1D130ABDB1B0D93EAE54BF0400B99F89C
:102B200000603AE599F800606C2E03BF99F80160E7
:102B30004BF0200B09F101094BF0100B2DE5002A99
:102B400040F04C871BF0200F40F03F851BF0100F2A
:102B500040F0FC801BF0400F00F0F8800E9A1368E4
:102B600004320E92BDF82C201A80E3E499F800603C
:102B700000297FF412AD012220210EE599F80060B2
:102B80002A2E09F1010000F0F186A6F13003092B8D
:102B9000814698BF002000F23D8619F8016B00EBDA
:102BA000800003EB4000A6F13003092BF5D9099012
:102BB000F5E44BF0800B99F80060EEE499F80060C2
:102BC00001222B21E9E40E9AAE4B14681893782663
:102BD000302304328DF870304BF0020B0E9200253A
:102BE0008DF87160022365E5002A40F0E486A64B6B
:102BF0001893FFE60E99CDF818B00A688DF8982062
:102C000000230A469A468DF86F3004320123079359
:102C1000CDF824A0CDF840A00E920D9326AF75E517
:102C2000A6F13003002019F8016B00EB800003EBE4
:102C30004000A6F13003092BF5D90C90AFE4002A2F
:102C400040F0C8864BF0100B26E74BF0010B99F8CB
:102C50000060A2E40E9C23680C93184600282346CB
:102C600003F10403FFF6B8AE0E9399F8006094E404
:102C7000002A40F0B7860E9D073525F0070303F1C3
:102C800008020E921A6813925B681293129B139DAE
:102C900023F00044284621464FF0FF327B4B03F0DF
:102CA00031FF002840F0A283284621464FF0FF3232
:102CB000764BFFF713F9002840F09883169A139883
:102CC000179B1299FFF700F9002840F035849DF812
:102CD0006FA06F4F6F4B032200212BF080000792F3
:102CE00009910690472ED8BF1F460D92109107E517
:102CF0004BF0080B99F800604FE40E9D073525F066
:102D0000070303F10802D3E900450E920023D1E442
:102D10000E9D073525F0070303F10802D3E90045AE
:102D20000E920123C6E4002A40F05086C6B100236B
:102D300001229A4607928DF89860CDF818B08DF868
:102D40006F30099310930D9226AFDFE40E9A13684B
:102D500004320E920B9A1A60FFF7ECBB259C27E514
:102D6000259BDDF828A0002B40F0948500232493B8
:102D7000DAF8643013F0010FBAF80C3002D19A057A
:102D800040F149825B063FF5ECAD0B9841B0BDE8E0
:102D9000F08F652E40F3B280169A1398179B129904
:102DA000FFF788F8002800F06081249B3A4AC8F8B1
:102DB0000020013301340122072B25942493C8F805
:102DC000042000F3BF8308F108081D9B119A259C7D
:102DD000934203DB069BDF077FF565AD249B1499C7
:102DE000159AC8F8002001330C44072BC8F80410CA
:102DF0002594249300F3F88308F10808119B5E1EC4
:102E0000002E7FF750AD102E249B244D40F3DD8122
:102E10001027DDF820A0DDF828B005E008F108084B
:102E2000103E102E40F3D18101331034072B25942E
:102E3000249388E8A000F1DD23AA5946504603F008
:102E4000D5FB002840F0CD83259C249B0DF1C008C4
:102E5000E6E7AA468CE70C9B079AA3EB020ABAF1B5
:102E6000000F7FF7CAACBAF1100F249B0B4D39DD70
:102E700042462146B0464FF0100B2E46089C0A9D54
:102E800015E000BF506F40003C6F4000FFFFEF7F38
:102E9000306F40002C6F40006C6F4000806F40002E
:102EA000AAF1100ABAF1100F02F1080216DD01337F
:102EB0001031072B2591249382E84008F0DD23AAE6
:102EC0002946204603F092FB0028C2D1AAF1100A3D
:102ED000BAF1100F2599249B30AAE8DC35460C4640
:102EE0004646904601335444072B2594249388E8A2
:102EF000200400F3648208F108087EE4119B249EFC
:102F0000012B40F3FD81013601340123072E259466
:102F10002496C8F80070C8F8043000F30E8208F157
:102F20000808149A159BC8F8003001361444072E7F
:102F300025942496C8F8042000F32E8208F108088E
:102F4000179B169A13981299FEF7B4FF119B00284D
:102F500040F00681013B013601371C44072E2496C0
:102F60002594C8F80070C8F8043000F3D98108F13E
:102F70000808199AC8F80420013614441FAB072E1C
:102F800025942496C8F800307FF78BAC23AA0A99C1
:102F9000089803F02BFB58B9259C0DF1C00882E47A
:102FA00023AA0A99089803F021FB00283FF4C5AC36
:102FB000DDF828A0DCE6DDF818B0012B00F0218157
:102FC000022B27D1CDF818B00024002591E523AAC3
:102FD0000A99089803F00AFB0028E9D1259C0DF115
:102FE000C0084DE423AA0A99089803F0FFFA0028C4
:102FF000DED1259C0DF1C008FFF7ECBB23AA0A998E
:10300000089803F0F3FA0028D2D1259C0DF1C008EE
:10301000FFF7F0BBCDF818B00024002530A900E080
:103020003946E20842EA4572E80804F0070305461B
:103030001446303354EA050201F8013C01F1FF3730
:10304000EED1069AD2077FF564AD302B3FF461AD27
:103050003023023907F8013C30AB5B1A0D930F4661
:10306000FFF746BB0223FFF725BB1D99002940F35C
:103070007482109B119A9342A8BF1346002B1E46E0
:103080000DDD249BC8F8007001333444072B2594D0
:10309000C8F80460249300F3248308F10808109B07
:1030A000002EA8BF9B1B002B1E4640F3D080102E85
:1030B000249BC04D40F3B78022464FF0100ADDF844
:1030C00020B00A9C05E008F10808103E102E40F3DD
:1030D000A98001331032072B2592249388E820041D
:1030E000F1DD23AA2146584603F080FA002840F07B
:1030F0002483259A249B0DF1C008E6E7002D08BF24
:103100000A2C7CD330AF204629460A22002303F044
:1031100037FD303207F8012D2046294600230A22C8
:1031200003F02EFD04460D4654EA0503EBD130AB07
:10313000DB1B0D93FFF7DCBA099B0D9330AFFFF754
:10314000D7BA23AA0A99089803F050FA00287FF406
:103150002FAF9DF86FA0259C0DF1C008FFF728BB8D
:103160005F1E002F7FF705AF102F924D40F30A81AD
:103170004FF0100ADDF820B005E008F10808103F14
:10318000102F40F3FF8001361034072E259424962B
:1031900088E82004F1DD23AA0A99584603F026FAAC
:1031A00000287FF405AF259C249E0DF1C008E6E7BA
:1031B0000E990A4604320C680E920025FFF77ABA7F
:1031C0001C6804330E93002526E401333444072B96
:1031D0002594249388E860007FF763ABD6E6043239
:1031E0001C680E9201230025FFF764BA0E9A14683A
:1031F00013460433E5170E9322462B4660E4DDF8B0
:1032000018B0CDF818B040AF3034012307F8414D65
:103210000D93FFF76DBADAF8580002F0A3F8BAF888
:103220000C30AFE5144601333444072B2594249326
:1032300088E8600040F36D8123AA0A99089803F09A
:10324000D5F900287FF4B4AE259C0DF1C0081D9B74
:10325000119A934280F25881249A14981599C8F8CB
:10326000001001320444072A2594C8F8040024926F
:1032700000F3528108F10808119A1099D31A561ACE
:103280009E42A8BF1E46002E0EDD249AC8F8046098
:1032900001320F443444072AC8F800702594249260
:1032A00000F33C8208F10808002EACBF9E1B1E46AE
:1032B000002E7FF7F8AA102E249B3E4D85DD1027A7
:1032C000DDF820A0DDF828B005E008F10808103E80
:1032D000102E7FF77AAF01331034072B25942493F7
:1032E00088E8A000F1DD23AA5946504603F07EF994
:1032F000002840F07681259C249B0DF1C008E6E76C
:10330000069BD8073FF5FFAD013601340123072E98
:1033100025942496C8F80070C8F804307FF727AECB
:1033200023AA0A99089803F061F900287FF440AEB7
:10333000259C249E0DF1C0081BE623AA0A99089833
:1033400003F054F900287FF433AE259C249E0DF140
:10335000C008E6E50E9D073525F00705D5E90023F1
:1033600005F108010E9114461D46FFF7A9BB0E9DFD
:10337000073525F0070303F108020E92D3E9004553
:10338000FFF74ABB01363C44072E2594249688E873
:10339000A0007FF7ECADC3E723AA0A99089803F0D1
:1033A00025F900287FF404AE259C249E0DF1C00869
:1033B000C6E500BF806F400030AFFFF799B923AA80
:1033C0000A99089803F012F900287FF4F1AD259CC2
:1033D0000DF1C008FFF711BA4FF02D0A644265EBFA
:1033E00045058DF86FA00123FFF768B9139C2246AD
:1033F0002046129C2346214603F084FB002840F01F
:103400008C82099B013326F020030D9300F09180FC
:10341000472B04D1099B002B08BF012309934BF4D0
:1034200080730693129BB3F1000A139B0793BBBFF3
:10343000534603F1004A00232D23662E0F9300F01C
:103440007F81462E00F0D4810D9B079A452B0CBF3F
:10345000099B099D21A81EA908BF5D1C049003912A
:103460001DA802210290534601950091089800F092
:103470000BFC672E074640F0AF811BF0010F00F0F8
:1034800013827C19169A0798179B5146FEF712FD76
:10349000002840F03281219BA34206D230215A1CE1
:1034A00021921970219B9C42F9D8DB1B11930D9B33
:1034B000472B00F0B980652E40F376821D9B109358
:1034C000662E00F06281119B109A1946914200F31A
:1034D0004F811BF0010F40F0098222EAE27307934B
:1034E0000D9267260F9B002B40F0968009939DF864
:1034F0006FA0FFF705B9DAF8580001F033FF4FF07D
:10350000FF330B93FFF730BA069AD5077FF5B4AEB9
:10351000A2E608F108089AE623AA0A99089803F097
:1035200065F800287FF444AD1D9B259C0DF1C00873
:10353000A2E60623099372E74FF02D0A8DF86FA0DB
:10354000FFF7C7BB23AA0A99089803F04FF8002891
:103550007FF42EAD0DF1C00837E4249BB44AC8F8BF
:103560000020013301340122072B25942493C8F84D
:10357000042000F3248108F1080829B9119B1BB924
:10358000069BDE077FF58FA9249B1498159AC8F82F
:103590000020013302462244072B2592C8F804007C
:1035A000249300F3698108F108080029C0F23681EC
:1035B0001199C8F8007001338C18072B25942493B7
:1035C000C8F804107FF76DA9E0E40E9A0B99136810
:1035D000CD170846043229460E92C3E90001FEF7D2
:1035E000A9BFDA46FFF7C4BB23AA0A99089802F0DC
:1035F000FDFF00287FF4DCAC259C0DF1C008FFF72F
:10360000FDBB38460994FEF7DBFE0E950D90CDF814
:1036100018B00346FFF736BA4FF02D0A00238DF895
:103620006FA00993FFF76FB81D9B10931A460333E1
:1036300004DB099B19469142BFF645AF023E109B41
:103640008DF87C60013B002B1D93BDBF109BC3F127
:1036500001032D222B22092B8DF87D2040F33E8182
:103660000DF18B042046734D00E0104685FB0312DC
:10367000D917C1EBA20101EB8102A3EB4202303268
:10368000092900F8012C0B4600F1FF32EDDC303344
:103690000238D9B2844202F8011C40F290810DF147
:1036A0007E00134601E013F8011B00F8011BA34242
:1036B000F9D101339B1A0DF17E0213441FAA9B1A04
:1036C000119A1993012A13440D9340F345810D9BE0
:1036D000149A13440D9323EAE37307930023109382
:1036E00000E723AA0A99089802F080FF00287FF4D7
:1036F0005FAC259C0DF1C008D1E42346D5E6099BBB
:103700001097062B28BF06230997BA4607930E95F4
:10371000CDF818B00D93484FFEF7F2BF23AA0A99CF
:10372000089802F063FF00287FF442AC1D9B119AB9
:10373000259CD31A0DF1C008B6E5A246FFF718BBC9
:1037400021A81EA9099D049003911DA803210290A0
:10375000079A019553460091089800F095FA07469C
:1037600044193B78302B00F0CA801D9D2C4489E61B
:10377000149A119B1344109A0D93002A40F3E4808D
:1037800023EAE37307936726ACE6002B40F3FB8044
:10379000099A002A40F0CE801BF0010F40F0CA8049
:1037A00007930D939EE6099B07930D9309900E9541
:1037B000CDF818B010909DF86FA0FEF7A1BF23AA16
:1037C0000A99089802F012FF00287FF4F1AB1D99C6
:1037D000259C0DF1C008D0E6472E7FF452AE1BF0B9
:1037E000010F00F0DA80462E07EB0504B9D049E658
:1037F00021A81EA9099C049003911DA803210290F1
:10380000079A019453460091089800F03DFA254626
:103810000746E8E700230993FEF7C1BE4E42103188
:10382000064D43DA1024DDF820A0DDF828B00CE0C6
:103830006C6F400067666666646F4000806F400092
:1038400008F10808103E102E30DD01331032072B2E
:1038500025922493C8F80050C8F80440F0DD23AA4C
:103860005946504602F0C2FE00287FF4BAAE259AAF
:10387000249B0DF1C008E5E723AA0A99089802F0F5
:10388000B5FE00287FF494AB1D99259A249B0DF179
:10389000C0088AE6089823AA514602F0A7FE00282D
:1038A0003FF464AAFFF764BA219BFEE5013332447A
:1038B000072B88E860002592249308F108087FF719
:1038C00077AE23AA0A99089802F090FE00287FF4A8
:1038D0006FAB259A249B0DF1C00869E63033302286
:1038E0008DF87F308DF87E2020ABE7E6109B149A90
:1038F00013440D9323EAE37307936726F2E5169AC0
:103900000798179B5146FEF7D5FA00287FF42DAF94
:10391000C5F101051D952C44B4E5129B334F002BD6
:10392000B6BF4FF02D0A9DF86FA08DF86FA0304BF9
:10393000FFF7D1B9109B149A1344099A1A4422EA4A
:10394000E2730D920793CDE5109B0D9AC3F101032D
:103950001A4413460D9213E71BF0010310937FF4F2
:10396000B6AE0D9B23EAE3730793BBE50E9C99F873
:103970000160236843EAE3730993234604338146D5
:103980000E93FEF70ABE099B13B91BF0010F02D07C
:10399000149B0133D1E7012302E7219BDB1B119329
:1039A0000D9B472B3FF440AE1D9B109347E68DF8CF
:1039B0006F10FFF71DB88DF86F10FFF718B90DF1F4
:1039C0007E037BE68DF86F10FFF766B88DF86F10F9
:1039D000FFF7ACB98DF86F10FFF734B98DF86F10A1
:1039E000FFF7B0B88DF86F10FFF745B9386F40009A
:1039F000346F40002DE9F0410C46ADF58D6D89899D
:103A0000666EE589199621F002010646E069ADF877
:103A10000C1017464FF48061626AADF80E5098465C
:103A20001AAD0023079016A80992069300950495F5
:103A30000291059101F090FC43463A4669463046B2
:103A4000FEF72CFD051E07DB3046694601F0E6F85F
:103A5000002818BF4FF0FF35BDF80C305B0603D5CA
:103A6000A38943F04003A381169801F077FC284610
:103A70000DF58D6DBDE8F08138B5304B1B680546FE
:103A80000C4613B19A6B002A38D0B4F90C2093B2CB
:103A900018070CD52069A8B113F001021ED0636984
:103AA00000225B42A361A260F0B1002038BDD906BC
:103AB0003CD5580726D4206942F00803A3819BB265
:103AC0000028E9D103F42072B2F5007FE4D0284643
:103AD000214601F077FCA3892069DDE7990758BFEB
:103AE0006269A2600028E0D1B4F90C301A06DDD575
:103AF00043F04003A3814FF0FF3038BD184601F07A
:103B0000E5F8C2E7216B51B104F14003994204D0BA
:103B1000284601F07DF9B4F90C200023236300232B
:103B20002069636022F024022060C5E742F0400271
:103B300009232B604FF0FF30A28138BD10004020D8
:103B4000024B13B1024800F005B8704700000000B6
:103B50003D4D4000002301461A46184602F0CCBDF8
:103B600002690B69934200F38D802DE9F04F03F158
:103B7000FF3801F1140700F1140B57F828205BF807
:103B800028304FEA880483B00132B3FBF2F90BEB23
:103B90000403009407EB040A0193B9F1000F39D034
:103BA00000252E46BC46DE465CF8044BDEF80030AD
:103BB000A2B209FB0255220C2C0C09FB0242ADB249
:103BC000751B96B2C6EB134615FA83F306EB234634
:103BD0009BB243EA0643E2454FEA12454EF8043BE6
:103BE0004FEA2646E0D2009B5BF8033093B9019C74
:103BF000231F9B450CD254F8043C4BB9A4F1080395
:103C000002E01A68043B1AB99B4508F1FF38F8D363
:103C1000C0F81080044602F0B1F900282EDB09F14B
:103C200001095D46002357F8041B28688AB29A1AD6
:103C30000B0C12FA80F2C3EB104303EB224392B257
:103C400042EA0342BA4545F8042B4FEA2343EAD23D
:103C50005BF828200BEB880382B91A1F93450BD21F
:103C600053F8042C42B9083B02E01A68043B1AB925
:103C70009B4508F1FF38F8D3C4F81080484603B0DC
:103C8000BDE8F08F002070472DE9F04F016C9BB02C
:103C90000446279E92469B4641B1426C4A600123EE
:103CA00093408B6001F092FF00232364BBF1000F6F
:103CB0005D4635DB002333609D4BAB4315D050464A
:103CC000594600220023FEF7F5F8804600282DD043
:103CD000269A01231360289B002B00F0BD80954895
:103CE000186001381BB0BDE8F08F269A42F20F73BE
:103CF0001360BAF1000F0DD1C5F3130555B9289B18
:103D00008D48002BEED000F10803289A13601BB0F9
:103D1000BDE8F08F289B8948002BE3D0C31CF4E753
:103D200001232BF000453360AB46C5E718AA19AB59
:103D30000192009352465B46204602F0BFF92B0DDC
:103D4000814671D0CBF3130242F07F51189FCDF81A
:103D500050805046A3F2FF3641F440110022784BC8
:103D6000FDF78CFC6CA3D3E90023FDF73BFE6CA3AD
:103D7000D3E90023FDF784FCCDE902013046FDF7CD
:103D8000CBFD69A3D3E90023FDF72CFE02460B46C9
:103D9000DDE90201FDF774FCCDE9040102F0C8FE83
:103DA000002202900023DDE90401FEF78DF80028CF
:103DB00040F07381029D162D00F25D81614B03EB93
:103DC000C503D3E9000152465B46FEF79BF8002885
:103DD00000F0C5816B1E029300230E93BF1B7B1E58
:103DE000069300F1548100230893029B002BC0F23C
:103DF0004581069A0D9311461944002306910C93B0
:103E0000249B092B2AD8052B40F35B86043B249383
:103E10000025249B023B032B00F24286DFE813F0CF
:103E2000D403C902DF036104189F199E3E4406F2C1
:103E30003243202B40F38E81C3F1400306F212403F
:103E40009D402AFA00F02843FDF756FD0123013E6C
:103E5000A1F1F871149381E73B4843E700216164C5
:103E60002046259101F08CFE4FF0FF330A93259AEE
:103E70000F9301230490206424920B93199B002B31
:103E8000C0F2D980029A0E2A00F3D5802D4B03EBA5
:103E9000C203D3E90023CDE90823259B002BC0F200
:103EA000BA83DDE9085650462A4633465946FDF79F
:103EB000C3FE02F03DFE8046FDF72EFD2A46334646
:103EC000FDF790FD0B46024659465046FDF7D6FBDE
:103ED000049D08F130032B700A9B012B06460F4608
:103EE00005F1010568D00022184BFDF77BFD00228B
:103EF000002306460F46FDF7DDFF002840F08880CE
:103F0000CDF82C904FF0000ADFF840B00C94DDE9BA
:103F1000088928E0AFF3008061436F63A787D23F31
:103F2000B3C8608B288AC63FFB799F501344D33FA8
:103F30000000F07F6D6F4000906F40009C6F40006C
:103F40000000F83FD86F40006C6F40000000244034
:103F5000FDF748FD0022002306460F46FDF7AAFFA5
:103F6000002840F0C18342464B4630463946FDF7B3
:103F700063FE02F0DDFD0446FDF7CEFC42464B46F3
:103F8000FDF730FD02460B4630463946FDF776FB1D
:103F900004F1300E049E05F801EBA5EB060E0A9E17
:103FA000B645CDE9060152465B46D1D1A046DDF8C3
:103FB0002C900C9C06460F4632463B46304639460E
:103FC000FDF75EFB06460F4602460B46DDE908019B
:103FD000FDF77AFF48B932463B46DDE90801FDF7B7
:103FE00069FFA8B118F0010F12D015F8018C049ADE
:103FF0006B1E04E09A4200F0018413F8018DB8F1C1
:10400000390F03F10105F5D008F1010883F80080AC
:104010004946204601F0DAFD0022029B2A70269ACA
:1040200001331360289B002B00F09E8304981D60D1
:104030001BB0BDE8F08F0B9A002A3ED0249A012ACB
:1040400040F311830A9B0C9A5F1EBA42C0F28F8321
:10405000D71B0A9B002BC0F28B84089D0A9B089AF1
:104060001A440892069A01211A442046069201F049
:1040700047FE064624E001230E93AFE6089A029B12
:10408000D21A5B420C93002308920D93B8E6C7F155
:104090000103089300230693A7E6029D2846FDF737
:1040A0003BFC02460B46DDE90401FDF703FF002857
:1040B0007FF480AE6B1E02937CE60C9F089D0B9EE6
:1040C000002D0CDD069900290B4608DDA942089A4F
:1040D000A8BF2B46D21AED1ACB1A089206930C9B56
:1040E000D3B10B9B002B00F0B782002F10DD3146BF
:1040F0003A46204601F0A0FE4A46014606462046C2
:1041000001F008FE49468046204601F05FFDC146A9
:104110000C9BDA1B40F0A1820121204601F0F0FD4A
:104120000D9B002B80461CDD01461A46204601F0FF
:1041300083FE249B012B804640F3548200230C9382
:10414000D8F8103008EB8303186901F089FDC0F13D
:10415000200010E0C3F120050AFA05F074E60E9085
:104160003CE6249B012B40F3878200230C930D9B9C
:104170000120002BE4D1069A104410F01F0000F03B
:10418000A180C0F12003042B40F39E84089BC0F162
:104190001C00034408931346034405440693089BFC
:1041A000002B05DD49461A46204601F095FE814662
:1041B000069B002B05DD41461A46204601F08CFE89
:1041C00080460E9B002B40F086800A9B002B40F31C
:1041D00066820B9B002B00F09880002D05DD314698
:1041E0002A46204601F078FE06460C9B002B40F044
:1041F000378306960A9B049ADDF818B0013BD31862
:104200000B930AF001030C931746C24651464846E9
:10421000FFF7A6FC31460546484601F0AFFE5A4678
:104220000A905146204601F0C5FEC268804605F15D
:104230003003002A40F02B8201464846089301F0E3
:104240009DFE41460690204601F0C0FC069A089B60
:1042500032B9249921B90C9A002A00F0EF83249AEC
:104260000A990029C0F29F8205D1249919B90C99A5
:10427000002900F09882002A00F306830B9A3B7015
:1042800007F101089742454600F00C834946002398
:104290000A22204601F0A4FC5E45814631464FF0DB
:1042A00000034FF00A02204600F0EB8101F098FC79
:1042B0005946064600230A22204601F091FC474653
:1042C0008346A3E71C20089B03440893069B0344F2
:1042D0000544069363E74146484601F04FFE002837
:1042E000BFF673AF029F494600230A222046013FD2
:1042F000029701F075FC0B9B8146002B40F0B683C2
:104300000F9B002B40F3BF830A93DDF810B00A9F88
:104310005D4602E001F064FC814641464846FFF7F5
:104320001FFC00F1300A05F801ABA5EB0B03BB4203
:104330004FF00A024FF0000349462046EADB049B97
:104340000A9A012AACBF9B1801331D464FF0000B9F
:1043500049460122204601F0BFFD4146814601F059
:104360000DFE002840F33D8215F8012C04996B1EC8
:1043700004E08B4200F0AE8113F8012D392A03F1DD
:104380000105F6D001321A704146204601F01EFCAC
:10439000002E3FF43DAEBBF1000F05D0B34503D076
:1043A0005946204601F012FC3146204601F00EFC31
:1043B0002EE600230B93029B259A13440F9301339F
:1043C000012B1F461E460A93B8BF01270021172F55
:1043D00061640AD9012204235B0003F114008742BF
:1043E000114602F10102F7D26164204601F0C8FBD8
:1043F0000E2E049020643FF641AD002D3FF43EADFB
:1044000002990029CDE910AB40F30282B84B01F0CC
:104410000F020D1103EBC203E906D3E9006740F177
:10442000AE81B44B50465946D3E90823FDF704FC4E
:10443000CDE9120105F00F054FF0030A8DB1DFF849
:10444000B482EA0709D530463946D8E90023FDF79A
:10445000C9FA0AF1010A06460F466D1008F108086C
:10446000EFD13B463246DDE91201FDF7E5FB074699
:1044700088460E9B43B100229F4B38464146FDF7CC
:1044800023FD002840F086825046FDF745FA3A4663
:104490004346FDF7A7FA994B0022FDF7F1F80A9B76
:1044A0000546A1F15076002B00F03E81029B15934A
:1044B0000A9B12930B9B002B00F0FA81129A8C4BF3
:1044C0008F4903EBC20353E902230020FDF7B4FB3D
:1044D0002A463346FDF7D2F882468B463846414697
:1044E00002F026FB0546FDF717FA02460B46384652
:1044F0004146FDF7C3F830355FFA85F8049D06465E
:104500000F4685F8008002460B4650465946013555
:10451000FDF7F8FC002854D132463B46002076498E
:10452000FDF7ACF802460B4650465946FDF7EAFC4B
:10453000002840F07082129A012A00F01181129B2B
:10454000049ACDF84890134499460DE000206A493A
:10455000FDF794F852465B46FDF7B6FC002840F0A4
:1045600058824D4500F0FA80504659460022654B6E
:10457000FDF738FA0022634B82468B4630463946B7
:10458000FDF730FA0F46064602F0D2FA8046FDF7F4
:10459000C3F902460B4630463946FDF76FF808F17D
:1045A00030085FFA88F852465B4605F8018B0646EC
:1045B0000F46FDF789FC32463B460028C6D0DDF8A1
:1045C0004890159B029323E500230B93259B002B1A
:1045D00040F3DC801F461E460F930A93F6E6012344
:1045E0000B93F3E7BAF1000F7FF4A8ADCBF31303FD
:1045F000002B7FF4BAAD2BF000473F0D3F05002F95
:1046000000F00D82089B01330893069B013306934B
:1046100001230C93ABE50A9B002B3FF742AC40F023
:1046200021820022384BDDE90801FDF7DBF9524613
:104630005B46FDF75DFCDDF828804646002841D04A
:10464000259B049DDB4302934146204601F0BEFAC0
:10465000002E3FF4DDACA7E60C9A4946204601F057
:10466000EBFB814658E5149A002A00F0878103F29B
:1046700033430C9F089DF2E4BAF1000F7FF475AD4F
:10468000B4E701F0ADFA474606468346BEE501466B
:104690002046069301F09AFA0122069BE0E5249B4E
:1046A000022B7FF796AD0A9B002BC9D1414605220C
:1046B000204601F095FA01468046484601F05EFC2E
:1046C0000028BDDD029A04993123013202920B7059
:1046D0004D1CB9E7029A01320292049A31231370F9
:1046E00052E601230B9366E6DDF82C900C9C8FE4D8
:1046F000D86F4000B06F40000000F03F00001C4049
:104700000000E03F00002440000014405046FDF748
:1047100003F93A464346FDF765F90022C14BFCF721
:10472000AFFF0546A1F1507641460022BE4B384608
:10473000FCF7A4FF2A46334682468B46FDF7E2FB90
:104740008046002840F010812A4606F1004350467A
:104750005946FDF7B9FB18B1464671E7DDF84890B8
:10476000DDE910ABFFF78ABB0498FFF7BBBA0C9BDF
:104770000D9A0C97FB1A1A440D92002769E4DDE9A3
:1047800010234FF0020ACDE9122357E6002101233E
:1047900061642046259301F0F3F9259B0490206481
:1047A0000A930F9329E6002AD046CDF818B09A460E
:1047B00011DD49460122204601F08EFB414681462B
:1047C00001F0DCFB002840F34681BAF1390F00F01C
:1047D000068105F1310AB34687F800A07D1C069ECC
:1047E000D2E504D11AF0010F01D0BDE5154615F848
:1047F000013C302B05F1FF32F8D0C5E50499302299
:104800000A70029A15F8018C01320292FFF7FCBB84
:1048100000F0BB80029B5D42844B05F00F0203EB6E
:10482000C203D3E90023DDE91001FDF7DBF82D1108
:104830000746884600F02C817D4E4FF0020AEB07B8
:1048400009D538464146D6E90023FDF7CBF80AF1F1
:10485000010A074688466D1006F10806EFD108E602
:104860007168204601F08CF9336902339A000546DD
:1048700006F10C010C30FDF777FB2946012220469A
:1048800001F02AFB0690B5E4392BCDF818B0D046DC
:1048900000F0A58003F1010AB34687F800A07D1C53
:1048A000069E71E55A46D046B3469A4616464FE5EF
:1048B000129B5E4901EBC3012A46334651E90201CE
:1048C000FDF790F8CDE916013846414602F030F97F
:1048D0000546FDF721F80B46024641463846FCF7EF
:1048E000CDFE129B0F4604993035012B0D70064604
:1048F00001F1010526D0129B049ADFF83CB1CDF8F6
:10490000489013444FF0000A994652465B463046A1
:104910003946FDF767F80F46064602F009F980466A
:10492000FCF7FAFF08F1300802460B4630463946DC
:10493000FCF7A4FE05F8018B4D4506460F46E4D171
:10494000DDF848903B4B0022DDE91601FCF798FEAC
:1049500032463B46FDF7B8FA002846D0159B029335
:1049600015F8018CFFF743BB4FF000084646A9E657
:10497000089B0A9A9D1A0023FFF771BB189B0C9F96
:10498000089DC3F13603FFF76ABBDDE910784FF0ED
:10499000020A6EE50A9B002B3FF4B8AE0F9B002B7A
:1049A0007FF7DEAE0022244B38464146FDF71AF869
:1049B000074688460AF10100FCF7AEFF3A46434637
:1049C000FDF710F80022174BFCF75AFE029A0F9BD6
:1049D0001293013A0546A1F1507615926AE5392203
:1049E000B3463A70069E7D1CC0E4DDE91623002024
:1049F0001049FCF743FE32463B46FDF783FA08B9FF
:104A0000AEE6154615F8013C302B05F1FF32F8D023
:104A1000D7E5DDF84890159B0293FFF7E8BA0C97AD
:104A2000FFF7A5BB00001C4000001440D86F4000F9
:104A3000B06F40000000E03F00002440392BCDF86B
:104A400018B0D046DDF828B09A46C8D0BBF1000FA8
:104A50003FF7BFAEBFE67FF4BEAE1AF0010F3FF4E2
:104A6000BAAEB2E64FF000084646E9E5314600230B
:104A70000A22204601F0B4F80F9B002B06460ADDFF
:104A80000A93FFF7AABB249B022B23DC0F9B3BE47A
:104A90004FF0020AEDE4249B022B1BDC0F9BEFE797
:104AA000002565642946204601F06AF84FF0FF337F
:104AB0000A930F9301230490259520640B93FFF72D
:104AC000DDB90125FFF7A5B93FF469ABC0F13C00A2
:104AD000FFF7F9BB0F9B0A93E5E500BFB1F90C3076
:104AE0009AB22DE9F0410D46110780463AD46A6822
:104AF00043F40063002AAB816FDDAC6A002C49D01F
:104B000000229BB2D8F80060C8F8002013F480524D
:104B100067D02A6D5F0705D569682B6B521A0BB1F8
:104B2000EB6BD21A0023E9694046A047441C3CD0F5
:104B3000B5F90C302A692A6023F400630022AB81A6
:104B4000DB046A6047D4296BC8F8006011B305F133
:104B50004003994202D0404600F05AF900202863F1
:104B6000BDE8F0812E69AEB12C682E6091070CBFB4
:104B70006B690023A41BAB600AE0234632466F6AD0
:104B8000E9694046B8470028A4EB0004064404DD68
:104B9000002CF2DC0020BDE8F081AB8943F040033B
:104BA000AB814FF0FF30BDE8F081D8F800401D2CFC
:104BB000F3D8194BE340DB4313F00103EDD1B5F912
:104BC0000C206B6022F400632969AB81DA04296050
:104BD000B9D5002CB7D12865B5E7EA6B002A8CDC83
:104BE000D8E70123E9694046A047431C024602D0AA
:104BF000AB89AC6A8EE7D8F80030002BF8D01D2BBB
:104C000001D0162B02D1C8F80060C3E7AB8943F08E
:104C10004003AB81BDE8F0810100402038B50D466E
:104C2000044608B1836BBBB1B5F90C0088B16B6E5B
:104C3000DB0701D4810517D520462946FFF74EFF33
:104C40006B6EDA07044602D4AB899B0507D5204674
:104C500038BD0446204638BD00F038F8E4E7A86DBA
:104C600000F080FB204638BDA86D00F079FBE3E73B
:104C7000014900F02BBB00BF4168400010B5002384
:104C800004468181C281036043608360436603619F
:104C900043618361194608225C30FDF7FFF907483C
:104CA0000749084A084B2062E4616162A262E3623C
:104CB00004F15800BDE8104000F04EBBE564400030
:104CC00009654000456540006565400010B5044633
:104CD000124800F045FBA26BD2B904F53B731048B3
:104CE000C4F8E8320321C4F8E022E063C4F8E41217
:104CF00060680421FFF7C2FF01220921A068FFF7C5
:104D0000BDFF02221221E068FFF7B8FF0123A36371
:104D10000248BDE8104000F025BB00BFC00B40209A
:104D2000714C4000014800F01BBB00BFD40B402079
:104D3000014800F017BB00BFD40B402038B50A4C27
:104D40000A4D641BA4100AD004F18043013B05EB1B
:104D50008305013C55F804399847002CF9D1BDE88A
:104D6000384002F02FBA00BFD4714000D07140002B
:104D7000F8B5244F0C46064600F0F6FEBB685D68A9
:104D8000C4F57E610F3125F00305294421F47F61CC
:104D900021F00F01A1F58054B4F5805F07DB0021FD
:104DA000304601F08DFBBB682B44984204D030465E
:104DB00000F0E0FE0020F8BD6142304601F080FBCB
:104DC00001300DD0104BBA6819682D1B45F0010554
:104DD0003046091B5560196000F0CCFE0120F8BD7B
:104DE0000021304601F06CFBBA68831A0F2BDEDD20
:104DF000064C0549246843F00103001B536008601A
:104E0000D5E700BFB0054020E80A4020B80940209F
:104E1000002944D02DE9F0410D46804600F0A4FE63
:104E200055F8047C694927F00103A5F10804E2184C
:104E30008E685068B24220F003005ED0FE075060DA
:104E40000BD455F8087CE41B01F1080EA5687545E4
:104E50003B446DD0E768EF60BD6015186D68ED07E5
:104E60003ED543F001026260E350B3F5007F17D2F4
:104E7000DB08581C9A104D6851F83070A760012368
:104E8000934001EBC0022B43083AE2604B6041F8CB
:104E90003040FC604046BDE8F04100F06BBE70471A
:104EA0005A0A042A52D89A0902F13907FF0002F17E
:104EB0003805C819CA59083890424FD0516821F0B6
:104EC00003018B4232D292689042F7D1C368A0604E
:104ED000E3609C60C4604046BDE8F04100F04ABE1B
:104EE00095683B4FBD42034440D0D068E86043F032
:104EF000010285606260E350B7E7FF07034407D40F
:104F000055F8082CA41A1344A068E268C2609060A7
:104F1000304A126843F00100934260608C60B9D35C
:104F20002D4B40461968FFF723FFB3E71046CDE746
:104F300011184968C90744D49168D268CA6003440B
:104F400043F0010091606060E350A3E7142A16D893
:104F500002F15C07FF0002F15B05AAE7AA1001233A
:104F60004D6893402B434B600346B0E743F001028A
:104F70004C610C61E560A5606260E3508AE7542AE9
:104F800006D81A0B02F16F07FF0002F16E0590E7D9
:104F9000B2F5AA7F06D8DA0B02F17807FF0002F11A
:104FA000770586E740F25450824206D89A0C02F107
:104FB0007D07FF0002F17C057BE74FF47E777E25BD
:104FC00077E743F001016160136063E7B0054020BB
:104FD000B8054020BC094020180B40209368002BE6
:104FE00073D02DE9F04F8B8983B00C4619070090E0
:104FF000164626D5226922B313F0020035682CD05C
:105000004FF00009B04FC846B246B84543464A463D
:1050100028BF3B460098B8F1000F50D0E169666A9E
:10502000B047002858DDDAF808301B1A8144A8EB95
:105030000008CAF80830002BE7D1002003B0BDE813
:10504000F08F21460098FEF717FD002840F03381CD
:10505000A389356813F00200D2D113F0010945D1BC
:105060004F46019637B39A05D4F8088040F1838003
:105070004745C346C0F0AB8013F4906F40F0AC805E
:105080002068BA465A46494600F00AFDA2682368DD
:10509000A2EB08025B44A2602360019A9368A3EB31
:1050A0000A03D144A7EB0A079360002BC5D0A3895C
:1050B000002FD8D1D5F800906F680835D2E7D5F821
:1050C0000090D5F8048008359FE7002070472146FE
:1050D0000098FFF7A3FD70B3B4F90C3043F0400320
:1050E0004FF0FF30A38103B0BDE8F08F8146334617
:1050F0004E46A8469A464D464EB380B32068236973
:105100006269B145CB4628BFB34698425F4604D991
:10511000A36813449B4500F3A68093454BDB1346DD
:10512000676AE16900982A46B847071ED4DDB9EBE3
:105130000709CCD00120DAF80830DB1B3D44F61B10
:10514000CAF80830002B3FF478AF002ED5D108F113
:10515000080313E9600098460833002EF9D0324660
:105160000A21284600F04CFC002800F0A180013004
:10517000A0EB0509C2E720682369984202D8636959
:105180009F425DD2B84528BFB8464246494600F026
:1051900087FCA3682268A3EB08034244A360226053
:1051A0000BB1C24679E721460098FFF737FD00288A
:1051B00092D1C24671E75A46294600F071FCA268B6
:1051C0002368A2EB0B025B44A2602360AFE7206878
:1051D000B846BA46BB4655E762692068216902EBCA
:1051E0004208A0EB010A08EBD8780AF101004FEA67
:1051F000680838444045424684BF804642465B05C5
:1052000044D51146009800F02FF98346002855D068
:1052100052462169FCF7A8FEA38923F4906343F06A
:105220008003A3810BEB0A00A8EB0A03C4F810B0BB
:10523000C4F814802060A360B846BA46BB4621E794
:105240006FF00041B94228BF39464A4691FBF3F15D
:105250000098666A03FB01F3E169B047B0F1000A08
:105260003FF71BAF38E71A462946019300F018FCB8
:105270002268019B00981A4422602146FFF7CEFC69
:10528000019B00287FF428AF1F4650E7009800F0EC
:1052900071FF83460028C5D1009D21692846FFF78C
:1052A000B7FDB4F90C300C2223F080032A6015E717
:1052B00006F1010922E74FF0FF30BFE6009A0C2308
:1052C0001360B4F90C3009E700FCFF7F2DE9F843C7
:1052D00010F538771FD0884606464FF000097D68E4
:1052E000BC68013D11D4A389012B05F1FF3508D914
:1052F000B4F90E3001332146304602D0C04749EAA6
:1053000000096B1C04F16804EDD13F68002FE6D161
:105310004846BDE8F883B9464846BDE8F88300BF73
:10532000044B054A1B685B6B002B08BF134693F8C0
:10533000280170471000402044044020044A054BD7
:105340001268506B002808BF1846F030704700BF45
:105350001000402044044020704700BF704700BF49
:10536000704700BF704700BF70B50C46B1F90E1012
:10537000002990B015461E4614DB01AA01F046FB39
:1053800000280FDB029A02F47042A2F50052B2FA32
:1053900082F252094FF480634FF4006032602B6058
:1053A00010B070BDA289002312F08000336004D0D9
:1053B000402218462A6010B070BD4FF480632B6005
:1053C00010B070BD8A8992070B4606D501F14302E1
:1053D00001211A601A6159617047F0B583B001ABC1
:1053E0006A460C460646FFF7BFFF00990546304661
:1053F00000F03AF8B4F90C30D8B1019A154F009981
:10540000F76343F08003A3812060206161611AB9D2
:105410002B43A38103B0F0BD3046B4F90E1001F068
:1054200009FBA0B1A38923F0030343F001031BB2DE
:10543000EEE79A05EED423F0030304F1430243F0B0
:1054400002030121A381226022616161E2E7B4F9D4
:105450000C30DDE7714C4000024B0146186800F04B
:1054600003B800BF100040202DE9F04F01F10B06FA
:10547000162E83B0054640F29E8036F0070600F1F6
:10548000BD80B14200F2BA8000F06EFBB6F5FC7F41
:10549000C0F09382730A00F0B880042B00F2798187
:1054A000B30903F1390003F1380EC300BF4F3B4489
:1054B000A3F108015C68A14206D10CE0002A80F249
:1054C000AA80E468A14206D0636823F003039A1B14
:1054D0000F2AF3DD70463C69DFF8E4E2744500F022
:1054E000AB81636823F003039A1B0F2A00F39081BA
:1054F000002AC7F814E0C7F810E080F29D80B3F5E9
:10550000007F80F06181DB0803F1010C99107A685B
:1055100057F83C80C4F8088001238B4007EBCC018E
:1055200013430839E1607B6047F83C40C8F80C4001
:105530008210012494409C4200F28B801C4206D1D0
:1055400020F0030064001C4200F10400FAD007EBD5
:10555000C009CC468046DCF80C309C4507D16DE193
:10556000002A80F27B81DB689C4500F067815968E6
:1055700021F003018A1B0F2AF2DDD3F80CC0D3F807
:10558000088000939C19284646F0010642F0010568
:105590005E60C8F80CC0CCF808807C613C61C4F83F
:1055A0000CE0C4F808E065605A5000F0E3FA009B94
:1055B00003F108041EE0102920D800F0D5FA1026C7
:1055C00018230220794F3B44A3F108025C689442FF
:1055D00000F03D816368E168A66823F0030323447B
:1055E00028465A68F16042F001028E605A6000F06D
:1055F000C1FA0834204603B0BDE8F08F00240C2324
:1056000020462B6003B0BDE8F08F40204FF40073BC
:105610004FF03F0E4AE72344E1685A68A66842F01B
:105620000102F16028468E605A6000F0A3FA083447
:10563000204603B0BDE8F08F234428465A6842F064
:1056400001025A6000F096FA0834204603B0BDE823
:10565000F08FBC68636823F00308B04504D3A8EB5F
:1056600006030F2B00F38580DFF85891504BD9F8D3
:1056700000201B680132334404EB080A00F0558116
:1056800003F580530F3323F47F6B2BF00F0B594638
:10569000284600F015FF411C024600F0FC808245C0
:1056A00000F2F780434B19685944196000F04D81AE
:1056B000D9F8000001301BBFA2EB0A0A5144C9F817
:1056C0000020196012F0070100F01581C1F10800F7
:1056D000C1F580510244083102EB0B09C9F30B09F3
:1056E000A1EB0909494628460193009200F0E8FE23
:1056F000431C9DE80C0000F04381801A484440F0B0
:1057000001001968BA604944BC425060196017D062
:10571000B8F10F0F40F2FB806068A8F10C0222F094
:10572000070204EB020E00F001004FF0050C1043DD
:105730000F2A6060CEF804C0CEF808C000F21781CE
:105740001D4BBC681A68914288BF19601B4B1A68D0
:105750009142626888BF196022F003029642A2EB70
:10576000060301D80F2B04DC284600F003FA0024BE
:1057700040E7A21943F0010346F00106666028469F
:10578000BA60536000F0F6F90834204603B0BDE873
:10579000F08F142B71D9542B00F2A380330B03F13B
:1057A0006F0003F16E0EC30080E600BFB00540201D
:1057B000180B4020E80A4020100B4020140B40201A
:1057C000B8054020B80940205A0A042A5BD9142A97
:1057D00000F2AE8002F15C01C9005B3207EB010C04
:1057E0007958ACF1080C8C4500F088804A6822F0AA
:1057F0000302934273D289688C45F7D1DCF80C2000
:105800007B68E260C4F808C09460CCF80C408FE676
:10581000A11946F0010C42F00106C4F804C0284664
:1058200079613961C1F80CE0C1F808E04E60E250DE
:1058300000F0A0F90834DDE67B6879E608F101089C
:1058400018F0030F0CF1080C7FF485AE2DE0DC6836
:10585000A34208BF02303FF43EAEBBE619441C46EB
:105860004A68DB6854F8086F42F001024A60284633
:10587000F3609E6000F07EF9BCE603F15C0003F18A
:105880005B0EC30012E69A0902F13901C9003832F1
:10589000A4E7BC4254D0BC68626822F003025DE712
:1058A00059F80839994540F0868010F0030F00F14F
:1058B000FF30F5D17B6823EA04037B6064009C42DF
:1058C0003FF6C7AE002C3FF4C4AE1C4240467FF406
:1058D0003EAE64001C4200F10400FAD037E68C466C
:1058E0008CE7B3F5AA7F15D8F30B03F1780003F129
:1058F000770EC300DAE54FF48051EDE67B68921035
:10590000012101FA02F213437B60624679E7012329
:10591000536029E740F25452934222D8B30C03F16A
:105920007D0003F17C0EC300C0E503F1100BAEE671
:10593000542A29D81A0B02F16F01C9006E324DE7C3
:10594000204B196859441960B2E6CAF30B000028CD
:105950007FF4AEAE08EB0B03BA6843F0010353606B
:10596000EEE67F204FF47E734FF07E0E9EE504F14D
:10597000080128460093FFF74BFA009B1968DFE601
:1059800001204FF00009BCE6B2F5AA7F05D8DA0B7A
:1059900002F17801C900773220E740F254518A427F
:1059A00005D89A0C02F17D01C9007C3216E74FF44C
:1059B0007E717E2212E77B6880E7F00806F108031B
:1059C00000E600BFE80A402082B049B15AB16BB18D
:1059D00013780B601278101C18BF012002B07047BA
:1059E00001A9002AF3D1104602B070476FF0010000
:1059F000F4E700BF0000000000000000000000000D
:105A000001F0FF01102A2BDB10F0070F08D010F86F
:105A1000013B013A8B422DD010F0070F42B3F6D173
:105A2000F0B441EA012141EA014122F007047FF08C
:105A300000070023F0E80256083C85EA010586EAE3
:105A4000010685FA47F5A3FA87F586FA47F6A5FA1F
:105A500087F68EB9EED1F0BC01F0FF0102F007022B
:105A600032B110F8013B013A83EA010313B1F8D1D6
:105A70000020704701387047002D06BF35460338B7
:105A8000073815F0010F07D1013015F4807F02BFF0
:105A9000013015F4C03F0130F0BC0138704700BF41
:105AA0008842F0B50DD98B1898420AD28418002A82
:105AB00051D0224613F8014D02F8014D9942F9D117
:105AC000F0BD0F2A48D941EA00039B0746D100F1F7
:105AD000100401F11003154653F8106C44F8106CD3
