:020000040040BA
:10000000A8EC40202D5F40002B5F40002B5F40009C
:100010002B5F40002B5F40002B5F40000000000082
:10002000000000000000000000000000AD054000DE
:100030002B5F4000000000004D064000B506400068
:100040002B5F40002B5F40002B5F40002B5F400088
:100050002B5F40002B5F40002B5F40002B5F400078
:100060002B5F40000000000095594000A959400056
:10007000BD5940002B5F40002B5F40002B5F4000CC
:10008000D1594000E55940002B5F40002B5F4000F4
:100090002B5F40002B5F40002B5F400079644000E5
:1000A0002B5F40002B5F40002B5F40002B5F400028
:1000B0002B5F4000F90340002B5F40002B5F4000A6
:1000C0002B5F40002B5F40002B5F40002B5F400008
:1000D000000000002B5F4000000000002B5F40008C
:1000E0000D0440002B5F40002B5F40002B5F400061
:1000F0002B5F40002B5F40002B5F40002B5F4000D8
:100100002B5F40002B5F40002B5F40002B5F4000C7
:100110002B5F400000000000000000000000000015
:100120002B5F40002B5F40002B5F40002B5F4000A7
:100130002B5F4000000000002B5F40002B5F400061
:1001400010B5054C237833B9044B13B10448AFF311
:1001500000800123237010BDD00940200000000062
:10016000ACDD40000C4B43B10C480D4910B5AFF36A
:1001700000800C48036823B910BD0A48036833B9EE
:100180007047094B002BF7D0BDE810401847064BCD
:10019000002BF5D0184700BF00000000ACDD400088
:1001A000D4094020ACDD40000000000070B582B0F2
:1001B000026BC36A1340019300241C4E1C4DA842DD
:1001C00014BF0020012005010BE00E2C1ED8019A5F
:1001D00004F10C0101238B40134210D10134102C87
:1001E00022D00B2CF1D8019A0123A3401342F5D061
:1001F0002B1956F82330002BF0D09847EEE72B1937
:1002000056F82330002BE9D09847E7E7019A04F12C
:100210000F0101238B401342E0D02B1956F82330F5
:10022000002BDBD09847D9E702B070BDA4C94020AD
:100230000040064030B4046E01238B4024EA0304DE
:100240001578002D08BF002323430366446D4B003F
:100250000321994024EA01045178994021434165E2
:1002600030BC704700220260084B4360084B83603B
:100270004FF48023C3600223037401234374837407
:10028000C274037543758375704700BF00A3E11105
:10029000808D5B00002303700123437070470000D2
:1002A000026B12F0807201D01920704710B4012344
:1002B0000360CB7C002B18BF4FF000424B688C686A
:1002C000B3FBF4F3013B1B029BB2CC6844F4000483
:1002D00023430C7C240604F0706423434C7C2407E5
:1002E00004F040542343134343600B7D002B14BFA1
:1002F0004FF0807300230A6813434A7D002A14BF1D
:100300004FF000720022134383608B7D1B0203F4C5
:10031000407343F00C03C0F894300F4B984206D062
:100320000E4B98420DD000205DF8044B70470C4BEB
:1003300003F14001002243F8042F8B42FBD100203F
:10034000F2E7084B03F14001002243F8042B8B42F3
:10035000FBD10020E8E700BF00C00340004006409A
:10036000A0C94020E4C940200C4B994207D00B297A
:100370000BD806D0012303FA01F1416270474362B2
:1003800070474FF40063436270470E2994BF0C31ED
:100390000F31012303FA01F141627047FF0F00475B
:1003A00038B5114CA0420CBF102400240C440F4D52
:1003B00045F824200AD10E4A4FF48074C2F88441D3
:1003C0005B01DBB282F82833546009E0084A4FF041
:1003D0000054C2F880415B01DBB282F81D33146027
:1003E000044B984738BD00BF00400640A4C94020D8
:1003F00000E100E06903400008B50248024B98475D
:1004000008BD00BF00C00340AD01400008B5024870
:10041000024B984708BD00BF00400640AD014000B8
:1004200000B583B0134B98420CBF28201D20124BFF
:100430009847124B9B78FF2B1AD0EFF31083B3FA37
:1004400083F35B09019372B6BFF35F8F00220C4BFD
:100450001A700199094A93780133937029B10122E6
:10046000074B1A70BFF35F8F62B603B05DF804FBF1
:10047000FEE700BF004006409D5B40009CC9402055
:100480001800402000F1080343604FF0FF32826003
:10049000C36003610023036070470023036170475A
:1004A00043684B609A688A609A68516099600861F5
:1004B000036801330360704730B40D68B5F1FF3F46
:1004C00002D000F1080202E0026904E01A46536813
:1004D0001C68A542FAD253684B6099608A605160EB
:1004E000086103680133036030BC704703694268E8
:1004F000816891608268416851605A68904205D075
:1005000000220261186801381860704782685A60DA
:10051000F6E700000D4B1B68B3F1FF3F0AD04FF028
:10052000800372B683F31188BFF36F8FBFF34F8FD1
:1005300062B6FEE74FF0800372B683F31188BFF313
:100540006F8FBFF34F8F62B6FEE700BF0C004020F5
:1005500006480068006880F3088862B661B6BFF399
:100560004F8FBFF36F8F00DF00BF000008ED00E08A
:10057000DFF80C00016841F4700101607047000071
:1005800088ED00E04FF0807340F8043C40F8081C10
:10059000054B40F80C3C40F8202C6FF0020340F86B
:1005A000243C4438704700BF15054000064B1968CD
:1005B0000868B0E8F04F80F30988BFF36F8F4FF001
:1005C000000080F311887047FCC14020704700BFD5
:1005D0004FF0800372B683F31188BFF36F8FBFF3C0
:1005E0004F8F62B60B4A136801331360012B0FD192
:1005F000094B1B6813F0FF0F0AD04FF0800372B64F
:1006000083F31188BFF36F8FBFF34F8F62B6FEE79E
:10061000704700BF0C00402004ED00E00A4B1B684F
:1006200053B94FF0800372B683F31188BFF36F8F15
:10063000BFF34F8F62B6FEE7013B034A13600BB96D
:1006400083F31188704700BF0C004020EFF309804E
:10065000BFF36F8F154B1A681EF0100F08BF20ED07
:10066000108A20E9F04F10604DF8043D4FF08000F3
:1006700072B680F31188BFF34F8FBFF36F8F62B6EE
:1006800001F0AAF84FF0000080F3118808BC196847
:100690000868B0E8F04F1EF0100F08BFB0EC108AE9
:1006A00080F30988BFF36F8F704700BFFCC1402003
:1006B000704700BF08B5EFF311834FF0800272B6A8
:1006C00082F31188BFF36F8FBFF34F8F62B6054B74
:1006D000984718B14FF08052034B1A60002383F300
:1006E000118808BD4514400004ED00E0034A044BA6
:1006F0001A600722043B1A60704700BFBF27090039
:1007000014E000E000B583B0254B1A78D2B2019214
:10071000FF221A701B78DBB28DF803309DF803308E
:1007200003F080031F4A137007221F4B1A609DF8C5
:10073000033013F0800F10D0062200E00A469DF827
:1007400003305B00DBB28DF803309DF80330511E9F
:1007500013F0800FF2D1144B1A60134A13681B0276
:1007600003F4E0631360019BDBB20D4A13700F4B7F
:100770001A6842F460021A601A6842F060421A6015
:100780000B4B984700220B4B1A600B4B98470B4AB8
:10079000136843F040431360094B9847094B98474F
:1007A00000E400E0EC094020F009402020ED00E0EA
:1007B000ED0640000C0040207105400034EF00E0E1
:1007C0005105400015054000EFF305830F2B11D9AB
:1007D000124A9B5CDBB2124A12789A420AD94FF055
:1007E000800372B683F31188BFF36F8FBFF34F8F0F
:1007F00062B6FEE70B4B1B6803F4E0630A4A12681B
:1008000093420AD94FF0800372B683F31188BFF385
:100810006F8FBFF34F8F62B6FEE77047F0E300E0E3
:10082000EC0940200CED00E0F009402038B504460A
:1008300010F0070F02D020F007040834114B98473E
:10084000114B1B6893B1114B1B681C44A34213D27C
:100850004BF2F77294420FD80B4A15681D440B4BAC
:100860001C600B4B98474DB1284638BD094B23F00F
:100870000703054A1360E6E7054B9847064B984780
:100880000025F1E729144000F4094020F8C1402078
:1008900091154000000A40204765400050B14FF0DC
:1008A000800372B683F31188BFF36F8FBFF34F8F4E
:1008B00062B6FEE77047000038B504461546026C84
:1008C0005AB90368002B2ED140681B4B9847002370
:1008D0006360A36B0133A36338BD6DB98068174BA8
:1008E0009847A368226C1344A360626893421CD3A8
:1008F0002368A3600020ECE7C068104B9847236C86
:100900005B42E2681A44E26021688A4202D262686D
:100910001344E360022D0AD1A36B53B1A36B013BD7
:10092000A3630020D5E70020D3E70020D1E7002013
:10093000CFE70020CDE700BFD91B4000497540003C
:1009400030B583B00190446D74B1A26BE36B9A42F1
:1009500015D34FF0800372B683F31188BFF36F8F06
:10096000BFF34F8F62B6FEE74FF0800372B683F39A
:100970001188BFF36F8FBFF34F8F62B6FEE7A26B94
:10098000934203D80025284603B030BD0A4601A98A
:1009900020460B4B98470546A36CB3F1FF3F0AD1A5
:1009A000636A002BEFD004F12400064B984700281F
:1009B00018BF0125E7E7A36C0133A364E3E700BF99
:1009C000B9084000AD194000026C72B110B5034681
:1009D000C4681444C4604068844201D31868D86075
:1009E0000846D968014B984710BD704749754000CB
:1009F000F8B50446224B9847A36C002B1BDD214D14
:100A0000214F224E0BE0636AABB104F12400B047E2
:100A100078B9A36C013BA364A36C002B0BDD636D61
:100A2000002BF0D000212046A8470128F1D1B8477B
:100A3000EFE7B847EDE74FF0FF33A364144B984757
:100A40000F4B9847636C002B14DD236993B104F1BD
:100A500010060E4D0C4F07E0636C013B6364636C42
:100A6000002B07DD23692BB13046A8470028F3D0BF
:100A7000B847F1E74FF0FF336364054B9847F8BD83
:100A8000D105400041094000091B4000AD1940005C
:100A90001D06400038B508B304460D461D4B984767
:100AA0002268216CE36B03FB01F3D0186060002027
:100AB000A063A2605B1A1344E3604FF0FF336364EA
:100AC000A364FDB923692BB104F11000124B9847C0
:100AD00001280ED0114B9847012038BD4FF08003FC
:100AE00072B683F31188BFF36F8FBFF34F8F62B677
:100AF000FEE74FF080520A4B1A60BFF34F8FBFF3EF
:100B00006F8FE7E704F11000064DA84704F12400B9
:100B1000A847DFE7D1054000AD1940001D064000A1
:100B200004ED00E085044000F8B550B94FF08003B3
:100B300072B683F31188BFF36F8FBFF34F8F62B626
:100B4000FEE7064617460D4689B101FB00F0593015
:100B5000124B98470446E8B94FF0800372B683F30E
:100B60001188BFF36F8FBFF34F8F62B6FEE7582037
:100B70000A4B984704460028EED02060E6632564BF
:100B800001212046064B984784F850700023636586
:100B90002046F8BD00F158030360EFE72D08400040
:100BA000950A40002DE9F04F85B00192B8B1044696
:100BB00001B3022B2CD01D468846664B984700286F
:100BC00034D1019B002B38D04FF0800372B683F3F1
:100BD0001188BFF36F8FBFF34F8F62B6FEE74FF000
:100BE000800372B683F31188BFF36F8FBFF34F8F0B
:100BF00062B6FEE7026C002ADBD04FF0800372B6CB
:100C000083F31188BFF36F8FBFF34F8F62B6FEE798
:100C1000E26B012ACFD04FF0800372B683F31188C4
:100C2000BFF36F8FBFF34F8F62B6FEE700274A4EC8
:100C3000DFF850A1DFF82C9142E00027F7E72A46C1
:100C400041462046454B9847636D9BB12946204657
:100C5000434B9847012807D14FF08052414B1A600F
:100C6000BFF34F8FBFF36F8F3F4B9847012005B005
:100C7000BDE8F08F636A73B104F124003B4B9847E1
:100C80000128F1D14FF08052364B1A60BFF34F8FDD
:100C9000BFF36F8FE8E70028E6D04FF08052314B6A
:100CA0001A60BFF34F8FBFF36F8FDDE72E4B98476E
:100CB0000020DCE720462E4B98472E4B9847012713
:100CC000B047A26BE36B9A42B9D3022DB7D0019B18
:100CD000002BEBD00FB902A8D047234B9847264BE7
:100CE0009847B047636CB3F1FF3F01D100236364C1
:100CF000A36CB3F1FF3F01D10023A3641A4B9847C3
:100D000001A902A81D4B9847E0B9B047D4F838B004
:100D1000E76B154B9847BB45CCD1019904F1100006
:100D2000174B98472046124B9847124B984700287C
:100D3000C5D14FF08053C9F80030BFF34F8FBFF3D8
:100D40006F8FBCE720460A4B98470A4B9847002014
:100D50008DE700BF151B4000D1054000B9084000D9
:100D60004109400004ED00E01D064000AD194000BF
:100D7000F10940009115400029144000751A400007
:100D8000A9184000451A4000002836D02DE9F0414E
:100D9000044600293CD0022B48D01E461546884602
:100DA000354B9847EFF311874FF0800372B683F30A
:100DB0001188BFF36F8FBFF34F8F62B6A26BE36BE7
:100DC0009A4201D3022E4FD13246414620462B4B48
:100DD0009847A36CB3F1FF3F41D1636D002B33D033
:100DE00031462046264B9847002D3FD001283DD163
:100DF000286087F31188BDE8F0814FF0800372B658
:100E000083F31188BFF36F8FBFF34F8F62B6FEE796
:100E1000006C0028BFD04FF0800372B683F31188B6
:100E2000BFF36F8FBFF34F8F62B6FEE7E06B012811
:100E3000B3D04FF0800372B683F31188BFF36F8F86
:100E4000BFF34F8F62B6FEE7636A8BB104F12400F3
:100E50000C4B984775B168B101202860C9E7A36CB5
:100E60000133A3640120C4E70020C2E70120C0E7EA
:100E70000120BEE70120BCE7C9074000B9084000D7
:100E800041094000AD1940002DE9F04784B00192BE
:100E900098B10446E1B198460F46614B984728BB8C
:100EA000019B53B34FF0800372B683F31188BFF3F5
:100EB0006F8FBFF34F8F62B6FEE74FF0800372B6BD
:100EC00083F31188BFF36F8FBFF34F8F62B6FEE7D6
:100ED000026C002ADFD04FF0800372B683F31188D2
:100EE000BFF36F8FBFF34F8F62B6FEE700264D4D05
:100EF000DFF860A1DFF83C914BE00026F7E7E568FA
:100F000039462046484B9847B8F1000F1DD1A36BD6
:100F1000013BA363236813B9444B9847606023697E
:100F20006BB104F11000424B9847012807D14FF0F4
:100F30008052404B1A60BFF34F8FBFF36F8F3E4B11
:100F40009847012004B0BDE8F087E560636A002B94
:100F5000F5D004F12400364B98470028EFD04FF02D
:100F60008052344B1A60BFF34F8FBFF36F8FE6E7A9
:100F7000314B98470020E5E7A84760682F4B98471A
:100F80002D4B984730E020462D4B98472D4B9847E6
:100F90000126A847A36B002BB1D1019B002BE7D002
:100FA0000EB902A8D047244B9847274B9847A8472B
:100FB000636CB3F1FF3F01D100236364A36CB3F111
:100FC000FF3F01D10023A3641B4B984701A902A84E
:100FD0001E4B9847E8B9A847A66B174B9847002EB9
:100FE000D1D12368002BC7D0019904F12400184BFC
:100FF00098472046124B9847124B98470028C7D174
:101000004FF08053C9F80030BFF34F8FBFF36F8F9D
:10101000BEE720460A4B98470A4B9847002091E7C5
:10102000151B4000D1054000C9094000951C400037
:10103000AD19400004ED00E01D064000351B4000E6
:10104000F10940009115400029144000751A400034
:10105000A9184000451A400010B40B4B1B6853B14F
:101060000123094C54F8332032B10133082BF9D154
:101070005DF8044B70470023034A42F8331002EB3B
:10108000C3035860F4E700BF24CA402070B504468B
:101090000D4616460F4B9847636CB3F1FF3F0BD0DC
:1010A000A36CB3F1FF3F0AD00B4B9847A36B4BB136
:1010B00020460A4B984770BD00236364F0E7002385
:1010C000A364F1E73246294604F12400044B984713
:1010D000EEE700BFD10540001D064000F1094000C9
:1010E0002D194000084B1B681B683BB1064B1B6861
:1010F000DB68DB685A68054B1A6070474FF0FF32B7
:10110000024B1A60704700BF00C24020ACC24020B2
:1011100010B50F4B1B6858600E4B1B6898420ED3DE
:1011200004460D4B18680A4B196804310B4B98475D
:101130000B4B1B689C4201D2094B1C6010BD094B34
:101140001868034B19680431044B984710BD00BF61
:10115000FCC14020F4C2402000C24020B90440003D
:10116000ACC2402004C240202DE9F04F83B00C9D5A
:10117000DDF834A00E9E60B1042D15D94FF0800328
:1011800072B683F31188BFF36F8FBFF34F8F62B6D0
:10119000FEE74FF0800372B683F31188BFF36F8FC1
:1011A000BFF34F8F62B6FEE70190984691460F4617
:1011B00036B99000624B98470646002800F09E80A2
:1011C00058205F4B98470446002800F0948006633F
:1011D0004FEA8902A52130465A4B98476FF04046A6
:1011E0004E44236B03EB860323F007063B7884F819
:1011F00034303B78002B40F08480002784F83D7029
:10120000E562A564E76404F104094846DFF884B1A7
:10121000D84704F11800D8472461C5F10503A3613C
:101220006462276584F85470424601993046464B03
:1012300098472060BAF1000F01D0CAF80040434B34
:101240009847434A136801331360424B1B68002BD5
:1012500066D1404B1C601368012B21D13E4F3846AC
:101260003E4EB04707F11400B04707F12800B047E1
:1012700007F13C00B04707F15000B047DFF8188194
:101280004046B047364F3846B0473648B0473648F4
:10129000B0473648B047364BC3F80080354B1F6027
:1012A000354A1368013313602364E06A334A1168D6
:1012B000012383400B43136000EB80004946264B1B
:1012C00003EB80002E4B98472E4B98472E4B1B6804
:1012D000002B31D01F4B1B68DB6A9D422ED94FF08B
:1012E00080522A4B1A60BFF34F8FBFF36F8F0120DC
:1012F00003B0BDE8F08F3046254B98474FF0FF30E4
:10130000F6E73B4604F134020937597802F8011F29
:1013100013F8011F00293FF470AFBB42F5D16CE711
:10132000194B1B68002BBBD10A4B1B68DB6A9D4223
:10133000B6D3084B1C60B3E70120D9E70120D7E7FB
:101340002D0840007D76400085054000D105400015
:101350006CC24020FCC1402008C2402085044000EF
:1013600098C24020B4C24020E0C24020CCC24020FD
:1013700000C2402004C2402078C2402080C24020E9
:10138000A10440001D064000C8C2402004ED00E05A
:101390009D0840009B04400084C2402010B584B0EA
:1013A0000023039302930193009382221649174866
:1013B000174CA04701280BD020BB4FF0800372B61A
:1013C00083F31188BFF36F8FBFF34F8F62B6FEE7D1
:1013D000104B98470128EFD14FF0800372B683F38A
:1013E0001188BFF36F8FBFF34F8F62B64FF0FF329C
:1013F000094B1A600122094B1A600022084B1A603F
:10140000084B984704B010BD80CB40004117400006
:1014100069114000811D4000ACC24020C8C240207C
:10142000F4C2402005074000024A136801331360EC
:10143000704700BF74C24020014B1868704700BF5E
:10144000F4C240202DE9F047424B1B68002B78D1B5
:10145000414B1A6801321A601E68D6B93F4B1B68AF
:101460001B6853B14FF0800372B683F31188BFF34A
:101470006F8FBFF34F8F62B6FEE7384A1168384B63
:10148000186810601960374A136801331360364BCF
:101490009847364B1B689E4218D20024344B1B6879
:1014A000DB6A03EB8303334A52F82330022B28BF55
:1014B0000124314B1B680BB9304B9847304B1B68EC
:1014C000002B0CBF20460120BDE8F0870024DFF888
:1014D0008C90DFF8B8802B4F1FE04FF0FF32234B8A
:1014E0001A60DBE7214A1360D8E705F11800C0470E
:1014F000E86A3A680123834013433B6000EB8000B5
:1015000051461C4B03EB80001F4B9847184B1B6840
:10151000EA6ADB6A9A4228BF0124D9F800301B68C6
:10152000002BDAD0D9F80030DB68DD686B689E42AA
:10153000D8D305F1040A5046C047AB6A002BD4D17A
:10154000D6E70D4A1368013313600C4B984700240B
:10155000B4E700BF74C24020F4C2402000C2402063
:1015600004C24020B0C24020E5104000ACC2402080
:10157000FCC1402008C2402070C2402045654000A8
:10158000F8C2402080C24020A1044000ED04400089
:101590002DE9F843384B1B6853B94FF0800372B6FE
:1015A00083F31188BFF36F8FBFF34F8F62B6FEE7EF
:1015B000324B9847304B1A68013A1A601B68002B6F
:1015C00055D12F4B1B68002B32D100242D4B98474F
:1015D0002046BDE8F883FB68DC6804F11800B047DA
:1015E00004F104084046B047E06A2A6801238340BA
:1015F00013432B6000EB8000414609EB8000224B37
:101600009847224B1B68E26ADB6A9A420CD23B681D
:10161000002BE0D11E4B1B68DBB11D4B1B68C3B117
:101620001C4E1D4D1A4C0EE001221B4B1A60EEE7BA
:101630001A4F1B4E1B4DDFF87490E8E72368013BFF
:10164000236023682BB1B0470028F7D001232B601B
:10165000F4E7114B1B68012B0BD14FF08052124B5A
:101660001A60BFF34F8FBFF36F8F0124AEE70024E2
:10167000ACE70024AAE700BF74C24020D1054000B7
:101680006CC240201D064000A1044000FCC1402067
:1016900070C2402045144000F8C24020B4C240202F
:1016A000ED04400080C2402004ED00E008C240206C
:1016B00010B5002829D00446184B1B6853B14FF0D1
:1016C000800372B683F31188BFF36F8FBFF34F8F20
:1016D00062B6FEE7124B9847124B1B681C44124B34
:1016E00018680430114B984748B90F4B1A681049D5
:1016F0000B68D06A0122824023EA02030B60204675
:101700000C4B98470C4B984738B94FF080520B4B15
:101710001A60BFF34F8FBFF36F8F10BD74C24020AC
:1017200029144000F4C24020FCC14020ED044000D8
:1017300080C24020111140009115400004ED00E0EE
:1017400080B5DFF88880194EDFF884902AE0184BC6
:101750001B68012B1ED82B68002BF8D0C0473468BB
:10176000B847002CF7D0134B9847F368DC68201D6E
:10177000114B9847114A1368013B13602B68013BDA
:101780002B600F4B9847206BDFF848A0D0472046CE
:10179000D047E0E74FF08053C9F80030BFF34F8FD8
:1017A000BFF36F8F074D084FD5E700BFE0C2402061
:1017B00008C24020D1054000ED0440006CC240202A
:1017C0001D0640007CC240209115400029144000B5
:1017D00004ED00E09D0840002D4B1B68002B2CD130
:1017E00010B500222B4B1A602B4B1B681B6B1A6821
:1017F000B2F1A53F03D15A68B2F1A53F21D0264BE3
:10180000186819683431254B9847254B1B68B3FA83
:1018100083F3DBB2C3F11F0303EB8301214A52F8C8
:101820002120BAB94FF0800372B683F31188BFF359
:101830006F8FBFF34F8F62B6FEE70122154B1A6020
:1018400070479A68B2F1A53FD9D1DB68B3F1A53FE3
:10185000D5D1DAE7134A9900C81802EB8000446832
:1018600064684460194402460832944209D003EB8C
:1018700083030C4A02EB83035B68DA68064B1A6049
:1018800010BD6068074A02EB81025060EFE700BFBD
:1018900074C24020F8C24020FCC140202D654000A9
:1018A00080C2402008C2402038B5E0B10C46174D38
:1018B00029681831164B984728680430154B98470B
:1018C00040B92A6814490B68D06A0122824023EA91
:1018D00002030B60B4F1FF3F10D0104B1868204496
:1018E0000F4B984738BD4FF0800372B683F31188D1
:1018F000BFF36F8FBFF34F8F62B6FEE7034B1968DC
:1019000004310848084B984738BD00BFFCC140204F
:10191000B9044000ED04400080C24020F4C24020E1
:1019200011114000CCC24020A1044000E8B170B5C4
:1019300015460C46164E31681831164B98473068DC
:101940000430154B984740B9326814490B68D06A87
:101950000122824023EA02030B60012D10D0104BBC
:10196000186820440F4B984770BD4FF0800372B643
:1019700083F31188BFF36F8FBFF34F8F62B6FEE71B
:10198000034B196804310848024B984770BD00BFEB
:10199000FCC14020A1044000ED04400080C2402072
:1019A000F4C2402011114000CCC2402038B5C368B9
:1019B000DC6824B304F1180528461A4B98471A4BE3
:1019C0001B683BBB251D2846164B9847E06A174A03
:1019D0001168012383400B43136000EB800029460C
:1019E000134B03EB8000134B9847134B1B68E26AC1
:1019F000DB6A9A4213D90120104B186038BD4FF0B2
:101A0000800372B683F31188BFF36F8FBFF34F8FDC
:101A100062B6FEE729460A48064B9847E5E70020EC
:101A200038BD00BFED04400074C2402080C2402099
:101A300008C24020A1044000FCC14020F8C2402060
:101A4000B4C2402030B1094A12680260084A1268E4
:101A5000426070474FF0800372B683F31188BFF382
:101A60006F8FBFF34F8F62B6FEE700BFB0C240205A
:101A7000F4C2402038B5C0B1044609B30D461D4B31
:101A800098471D4B1A682B68B3F1FF3F2ED01B49B6
:101A900009682068884202D061688A4228D2616859
:101AA000501A834217D801241CE04FF0800372B60D
:101AB00083F31188BFF36F8FBFF34F8F62B6FEE7DA
:101AC0004FF0800372B683F31188BFF36F8FBFF3BB
:101AD0004F8F62B6FEE79B1A0B442B602046084BE3
:101AE00098470024074B9847204638BD0024F9E763
:101AF0000124F7E7D1054000F4C24020B0C24020E5
:101B0000451A40001D0640000122014B1A60704733
:101B1000F8C24020054B1B6833B1054B1B68002BF6
:101B20000CBF02200020704701207047C8C240202F
:101B300074C24020002844D038B50446C26A214906
:101B40000968C96A8A4214D28169002905DB1D49E6
:101B50000968C96AC1F10501816102EB82021A4973
:101B600001EB82026169914204D0164A1268D26A7E
:101B7000E26238BD251D2846144B984770B9E36AC8
:101B800003EB8301104A52F821203AB91048026849
:101B9000012101FA03F322EA03030360094B1B68E6
:101BA000D86AE0620A4A1168012383400B4313603C
:101BB00000EB80002946044B03EB8000054B98475F
:101BC00038BD7047FCC1402008C24020ED044000F1
:101BD00080C24020A104400000284DD038B5044602
:101BE000274A126890420AD04FF0800372B683F3FE
:101BF0001188BFF36F8FBFF34F8F62B6FEE7C26CE1
:101C000052B94FF0800372B683F31188BFF36F8F20
:101C1000BFF34F8F62B6FEE7013AC264C06AA16C9F
:101C200088422BD052BB251D2846164B984768B9D1
:101C3000E16A01EB8102144B53F8223033B91348A7
:101C4000036801228A4023EA02030360A06CE06279
:101C5000C0F10503A3610D4A1168012404FA00F3E1
:101C60000B43136000EB80002946074B03EB800019
:101C7000074B9847204638BD00207047002038BDEC
:101C8000FCC14020ED04400008C2402080C240203A
:101C9000A1044000054B1B6823B1044B1A68D36CA8
:101CA0000133D364014B1868704700BFFCC140206A
:101CB00008B54160006191420CD8D21A83699A42FA
:101CC00001D3012008BD011D094B1868094B984735
:101CD000002008BD9A4203D2994201D3012008BDD9
:101CE000011D054B1868034B9847002008BD00BF35
:101CF00000C34020B9044000FCC2402070B5154B21
:101D00009847154B1B6813B1144B984770BD144D81
:101D10002846144EB047144C2046B047134B1D6064
:101D2000134B1C60002210210520124B98470A4BD0
:101D3000186018B11049114B9847E5E74FF0800340
:101D400072B683F31188BFF36F8FBFF34F8F62B604
:101D5000FEE700BFD105400030C340201D06400013
:101D600004C340208504400018C34020FCC240202A
:101D700000C34020290B400088CB40005910400090
:101D800010B584B00F4B98470F4B1B6873B10023FD
:101D9000039302930193042200924FF482720B4941
:101DA0000B480C4CA04708B104B010BD4FF08003A5
:101DB00072B683F31188BFF36F8FBFF34F8F62B694
:101DC000FEE700BFFD1C400030C3402090CB400028
:101DD000011F400069114000D8B130B585B01546EB
:101DE0000446154A106820B31A46009101950294E2
:101DF000052919DC114B984702284FF000030CBF4E
:101E0000089A1A4669460C4800680D4CA04705B070
:101E100030BD4FF0800372B683F31188BFF36F8F2C
:101E2000BFF34F8F62B6FEE700236946054CA0471B
:101E3000EDE70020EBE700BF30C34020151B40005A
:101E4000A50B4000890D40002DE9F04782B0804687
:101E5000244B98470746244B1B6898421BD300230A
:101E6000C8F80030204B1F60384602B0BDE8F0874C
:101E7000002100910B46524620461C4CA04760B9F9
:101E80004FF0800372B683F31188BFF36F8FBFF3F7
:101E90004F8F62B6FEE7164D164E2B681A68C2B118
:101EA000DB68D3F800A0DC6804F104094846B047B9
:101EB000636A20469847E369012BEED1A369534436
:101EC0009A45D5D263602461494628680A4B9847F1
:101ED000E3E70A4A10680649086013600123C8F85E
:101EE0000030BFE7391440002CC34020D91D40000A
:101EF000FCC24020ED044000B904400000C3402073
:101F00002DE9F04788B0754E754FDFF8FC91DFF88A
:101F1000FC8133681A68002A00F0CE80DB681C68F8
:101F2000B84704A86F4B98470546049B002B44D143
:101F3000A04212D20022611B6B4B18686B4B984772
:101F40006B4B984700283AD14FF08053C9F80030C6
:101F5000BFF34F8FBFF36F8F31E0654B9847336806
:101F6000DB68D3F80CA00AF10400C047DAF81C3093
:101F7000012B04D0DAF82430504698471FE0DAF8F5
:101F8000181023462A46214450465A4DA847012896
:101F9000F0D1002100910B4622465046564CA047F6
:101FA0000028E7D14FF0800372B683F31188BFF3A6
:101FB0006F8FBFF34F8F62B6FEE74D4B98474A4D88
:101FC0004E4C06E007990698059B9847049B002B0A
:101FD00009DA00231A4604A92868A047002898D0E7
:101FE000049B002BEEDBDDF818A0DAF8143013B1F7
:101FF0000AF10400C04703A83A4B9847049B092BF9
:10200000E7D801A252F823F03120400031204000EF
:1020100031204000D31F400085204000B120400007
:102020003120400031204000D31F40008520400077
:10203000059CDAF8181023460246214450462D4CE0
:10204000A0470128BCD1DAF8243050469847DAF886
:102050001C30012BB4D1DAF81820002100910B4676
:10206000059802445046244CA0470028A8D14FF0C0
:10207000800372B683F31188BFF36F8FBFF34F8F66
:1020800062B6FEE70599CAF8181031B10346024658
:1020900001445046174CA04792E74FF0800372B6B8
:1020A00083F31188BFF36F8FBFF34F8F62B6FEE7E4
:1020B0005046134B984783E7B84704A8094B984705
:1020C0000546049B002B7FF478AF0E4B1B681A6803
:1020D000B2FA82F2520900242DE700BFFCC2402070
:1020E00029144000491E400030C340208D1040009C
:1020F00091154000B11C4000D91D4000890E4000E0
:102100009D08400000C3402004ED00E0ED044000C5
:1021100008B50348034B98470022034B1A7008BDCB
:10212000D65E07060100402064CA40202DE9F04F2A
:102130004768D0F80080424540F2718211F808509B
:10214000002D00F06C824FF0FF3C4FF0000E01EBD1
:10215000020B464686E00D2D7AD03DD9202D77D052
:10216000222D3CD1741C0460A24240F2CB810D5D53
:10217000002D00F0C981222D40F00781002B00F0D6
:102180007C824468099DA54240F2C080651C456080
:102190004FEA041803EB0804C4F808C0C4F804C0EC
:1021A000C4F80CE0002C00F0B18005684FF0030982
:1021B00003F8089001366660A560C4F80CE00137AA
:1021C0008468002B44D0B4F1FF3F41D003EB0414EA
:1021D000E5680135E5603BE0093D012D38D905682A
:1021E000AA4240F2E38101EB05084C5D002C40F06F
:1021F000D081DBE15B2DF2D101374BB34468099EFE
:10220000A64240F22782661C4660260103EB0608C0
:10221000C8F808C0C8F804C0C8F80CE0B8F1000F4E
:1022200000F01B828468B4F1FF3F06D003EB041971
:10223000D9F80C400134C9F80C407B2D0CBF0124A7
:1022400002249C550468C8F804404468013C84603A
:10225000066801360660B24240F2E1818D5D002DD4
:1022600000F0DD812C2D00F057817FF674AF5D2DDD
:102270000AD005D83A2DBDD14468013C8460E7E717
:102280007B2DB9D07D2DAAD1002BE1D07D2D0CBFA7
:102290004FF001094FF0020945686C1E00F1E6811C
:1022A00005F18055013D03EB0515B24603E0103DF5
:1022B000013C00F1DB81A8466E68B6F1FF3FF6D025
:1022C000AE68B6F1FF3FF2D156462D784D4540F04D
:1022D000C781C0F808C00136C8F80860B4F1FF3FF4
:1022E00000F0C181002CB3DB03EB041604E0013CD9
:1022F000103EB4F1FF3FABD07568B5F1FF3FF6D0AB
:10230000B568B5F1FF3FF2D18460A1E706604FF0F8
:10231000FF3727E0A51C0560AA4226D94D5D25B3ED
:1023200004F1030801EB08090634A2464446D046EE
:1023300008E00460444518D0D94516D019F8015B6F
:10234000013495B125F0200AAAF1410A5FFA8AFA10
:10235000BAF1050FEDD9303DEDB2092DE9D906608E
:102360006FF001073846BDE8F08F0468013C046057
:10237000046801340460A24240F2C8800D5D002D63
:1023800000F0BE80222D3FF4F9AE5C2DF0D1651C2B
:10239000AA42EDD905604D5D223D532D00F2AC807F
:1023A0000FF2040858F825F071234000F92440008A
:1023B000F9244000F9244000F9244000F9244000A9
:1023C000F9244000F9244000F9244000F924400099
:1023D000F9244000F9244000F92440007123400012
:1023E000F9244000F9244000F9244000F924400079
:1023F000F9244000F9244000F9244000F924400069
:10240000F9244000F9244000F9244000F924400058
:10241000F9244000F9244000F9244000F924400048
:10242000F9244000F9244000F9244000F924400038
:10243000F9244000F9244000F9244000F924400028
:10244000F9244000F9244000F9244000F924400018
:10245000F9244000F9244000F9244000F924400008
:10246000F9244000F9244000F9244000F9244000F8
:10247000F9244000F9244000F9244000F9244000E8
:10248000F9244000F9244000F9244000F9244000D8
:1024900071234000F9244000F9244000F924400051
:1024A000F9244000F924400071234000F924400041
:1024B000F9244000F924400071234000F924400031
:1024C000F9244000F9244000F9244000F924400098
:1024D000F9244000F924400071234000F924400011
:1024E000F9244000F924400071234000F924400001
:1024F000712340001523400006606FF0010731E7AB
:10250000B04604E0B04602E0B04600E0B046C0F895
:1025100000806FF0020725E7002B3FF499AE846836
:10252000B4F1FF3F3FF494AE24011C5D013CE4B2E2
:10253000012C7FF68DAE45686E1E3FF589AE03EB2C
:10254000051503E0103D013E3FF582AE15F8104C35
:10255000013CE4B2012CF5D855F80C4CB4F1FF3F26
:10256000F0D055F8084CB4F1FF3FEBD186606FE630
:10257000092C03D30A2C19D90D2C17D0203CE4B216
:102580005E2C40D801350560AA420FD018F8014FE3
:1025900064B1202C0AD0EBD93A2C07D004D95D2C99
:1025A00004D07D2CEAD101E02C2CE7D17BB3446828
:1025B000099DA5422FD9651C456025015C19C4F809
:1025C00008C0C4F804C0C4F80CE024B3D0F80080FC
:1025D0004FF0040903F805906660C4F80880C4F859
:1025E0000CE00468013C046001378468002B3FF470
:1025F0002FAEB4F1FF3F3FF42BAE03EB0414E568BC
:102600000135E56024E606606FF00107AAE6013DAA
:10261000056001371CE606604FF0FF37A2E6002B8D
:102620003FF4A0AE41684A1E3FF59CAE03EB011398
:1026300003E0103B013A3FF595AE53F80C1CB1F1A5
:10264000FF3FF6D053F8081CB1F1FF3FF1D16FF016
:10265000020787E64FF0FF3784E64FF0FF3781E649
:102660006FF001077EE66FF001077BE6B4F1FF3FF4
:102670007FF4EEAD6FF0010774E60137E8E500BFC7
:102680000023036043604FF0FF3383607047000016
:1026900010B582B004460A20054B984700230093EA
:1026A000224610210348044CA04702B010BD00BFD1
:1026B0009D5B4000000E0E403B5740001A23064928
:1026C00010220A63013BFCD13B23034910224A63D9
:1026D000013BFCD1704700BF000E0E403423064979
:1026E00010220A63013BFCD12C23034910224A63C8
:1026F000013BFCD1704700BF000E0E4008B5102210
:10270000034B5A634BF2CC10024B984708BD00BFF5
:10271000000E0E4001004020F8B505460024074F8A
:10272000074E03E0B8470134182C06D025FA04F30D
:1027300013F0010FF6D0B047F5E7F8BDBD26400015
:10274000DD26400070B518240026044D3046A84709
:10275000013CFBD1024B984770BD00BF19274000D8
:10276000FD264000002304491A4641F82320013386
:10277000182BFAD1704700BF68CA40200023034AD3
:1027800042F823000133182BFAD1704768CA402061
:1027900070B5074B98470024064E074D56F82400A5
:1027A000A8470134182CF9D1044B984770BD00BFDD
:1027B0004527400068CA402019274000FD264000F8
:1027C00040EA012040EA024070470000102808D18A
:1027D000B1F1805F05D108B5024B1B6803B1984782
:1027E00008BD704734C3402050B170B5441E054E3B
:1027F000054D3046A847013CB4F1FF3FF9D170BD0B
:10280000704700BF35160300010040202DE9F0415C
:10281000094F4FF40038C7F83480084D08266E631E
:102820006420074CA047C7F830806420A0472E637F
:102830006420A047BDE8F08100120E4000100E4059
:10284000E927400010B50022144B1A600A20144CEE
:10285000A0470B20A0470C20A0471020A047112024
:10286000A047104B08221A61C3F8A0201A630E4A31
:102870004FF400311161C2F8A010116304221A61F3
:10288000C3F8A0201A63094B1B6813F0010F01D095
:10289000064B1B68064B9847002010BD34C34020F0
:1028A0009D5B400000100E4000120E4010E000E062
:1028B0000D28400030B583B0144B18601020144B25
:1028C00098474FF020517C20124B9847124C012220
:1028D0004FF080512046114B9847114B00935123E4
:1028E0004FF08052102120460E4DA8474FF08051E6
:1028F00020460D4B98474FF480320C4B1A60002253
:10290000102120460A4B984703B030BD34C3402005
:102910009D5B4000A557400000140E4069564000E2
:10292000CD274000255940009557400000E100E0C8
:10293000F959400008B528B94FF080510448054BBB
:10294000984708BD4FF080510148034B984708BD98
:1029500000140E409957400095574000F8B5394C87
:102960004FF480112166C4F8901061656162C4F86B
:102970008010236F0B432367636F23F48013636717
:102980004FF400122266C4F8902062656262C4F8B7
:102990008020236F13432367636F23F4001363675F
:1029A0004FF480032366C4F8903063656362C4F813
:1029B0008030206F18432067606F20F480006067CC
:1029C0006160626063604FF0007666602660266139
:1029D00026631D4D28461D4B984702232B608023FC
:1029E0002B606B6843F001036B606B6843F010036E
:1029F0006B6001212846164B98470022012128468A
:102A0000144B9847012211462846134B9847002241
:102A100001212846114B984711491248124B9847FB
:102A2000C2B201212846114B984700231A460121C2
:102A300028460F4FB84701232B6026630D4B98475C
:102A40000020F8BD00140E4000800040F15B400003
:102A50001D5C4000975C4000B55C4000D35C4000CA
:102A600000A3E111006CDC02E75C4000FD5C40006B
:102A7000255D40000D2840002DE9F04F83B003286C
:102A800044D10E684D680C8900238DF80430ADF8F0
:102A9000063086B1002D36D14FF00108994601ADC0
:102AA0004FF00072214B5A632CB3214FDFF89CB0DA
:102AB000DFF89CA006E04FF000084FF0010901AEDE
:102AC000EEE7C4B100231A4631783846D8470DF1F5
:102AD00005020DF106013846D047BDF806302B70CF
:102AE000013CA4B2B8F1000F00D10135B9F1000FDB
:102AF000E7D10136E5E74FF000720C4B1A63002076
:102B000003B0BDE8F08F6FF00500F9E740F21F1247
:102B100008490948094B984709480A4B98470D202E
:102B2000094B98474FF0FF30EAE700BF00140E4012
:102B30000080004098CB4000A8CB400019774000AF
:102B4000BCCB4000F177400041774000635C40001F
:102B5000335C400002220E4B1A6003F5592303F543
:102B600080634FF400125A61C3F8A0204FF4801222
:102B70005A61C3F8A0204FF480025A61C3F8A02024
:102B80004FF000725A61C3F8A0200020704700BFC8
:102B9000008000403AB10139821811F8013F00F875
:102BA000013B9042F9D1704722B1821800F8011B15
:102BB0009042FBD17047037843B1002301339BB2AD
:102BC00010F8012F002AF9D1184670470023FBE7BF
:102BD000024A13780133DBB2137070473BC34020C5
:102BE0007047000000B583B001200B4B984701A946
:102BF00041F27000094B9847034618B1184603B0DC
:102C00005DF804FB019941F00201019141F270006D
:102C1000034B98470346F1E735294000713F4000D8
:102C20007D3F400008B5124B1B784BB9114B1B7808
:102C3000DBB2032B0CD00F4B1B78DBB2042B07D07D
:102C40000B4A13780133DBB213700023184608BD1A
:102C5000094B984703460028F8D145F2786141F2C4
:102C60007400064B984703460028E9D0EEE700BF02
:102C700039C3402038C34020C13A40007D3F400066
:102C80001E4B1B7823B11D4A1378013BDBB2137036
:102C90001A4B1B78002B2ED1194B1B78DBB2032B60
:102CA00006D0174B1B78DBB2042B01D0002323E0A6
:102CB00000B583B00023019344F2213141F2740046
:102CC000104B9847034618B1184603B05DF804FB53
:102CD00001A901200C4B984703460028F4D1019923
:102CE00011F0020FF0D021F0020101910120054BFB
:102CF00098470346E8E700231846704739C3402049
:102D000038C340207D3F4000713F40002DE9F04F27
:102D100087B00746884692469946109CBDF84460A5
:102D2000BDF8485001F07F038DF815308DF8140080
:102D30000823ADF81630002C00F09F80BDF8163047
:102D400016FA83F32B449BB2ADF816305D4B9847CF
:102D50008346002840F0A28000230393ADF806309C
:102D60000293029B1F430297029B43EA08230293AC
:102D7000BDF81620029B43EA02430293029941F2F6
:102D80008C00514B98478346002840F093800023E5
:102D90000293029B43F002030293029941F27800EE
:102DA000494B98478346002840F0848000230393D2
:102DB000ADF80630BDF806309BB2B3F57A7F16D277
:102DC00041F27808414F02A94046B84778B9029BC2
:102DD00013F0020F59D0BDF8063001339BB2ADF8A5
:102DE0000630BDF806309BB2B3F57A7FEBD3039B78
:102DF000002B63D0039B0493BDF816309BB2ADF853
:102E000016300498082205A9314B984783460028BC
:102E100050D1049B08330493BAF1000F0AD00498F0
:102E20004A4651462A4B98478346002842D1049B84
:102E30004B4404937CB1049BA5EB09051D44049508
:102E4000049832462146224B98478346002831D1C8
:102E5000049B1E440496039B9B000293029B43F039
:102E600002030293029941F26C00174B9847834684
:102E700000BB184B984783461CE0BDF8163019FA82
:102E800083F39BB2ADF8163060E703A912480F4BED
:102E900098470028ABD000230393A8E740F29F1285
:102EA0000E490F480F4B98470F48104B98470D207D
:102EB0000F4B9847584607B0BDE8F08F6FF0020BF4
:102EC000F8E700BF252C40007D3F4000713F4000E7
:102ED000E53F4000812C400000041500D4CB4000A9
:102EE000A8CB40001977400024CE4000F177400085
:102EF000417740002DE9F04387B0DFF85C92804FC6
:102F0000804EDFF85882E1E0042204A905987E4B48
:102F10009847BDF812309BB2ADF812300446002835
:102F200033D1BDF812309BB29D4205D0BDF81230AE
:102F30009BB2EB1A042B38DC9DF81030DBB2012B6E
:102F40004DD09DF81030DBB2022B67D09DF81030C9
:102F5000DBB2042B70D09DF81030DBB2062B79D099
:102F60009DF81030DBB2072B00F0828040F2022285
:102F700041463046654B98476548664B98470D205B
:102F8000654B98476FF005049EE04FF4EB724146A5
:102F900030465E4B984761485E4B98470D205E4B2C
:102FA000984701205E4B98478EE040F2DF12414681
:102FB0003046564CA047BDF812209DF810309DF8C1
:102FC0001110009192B229465648A0470D20524B4D
:102FD00098470120524B98476FF0050474E0524B1C
:102FE0001B6843B19DF81100BDF812100839059A0D
:102FF000083289B298474D4B1B78002B61D140F2C3
:10300000092241463046414B98474948414B984731
:103010000D20414B9847474B984752E0464B1B6861
:10302000002BE8D09DF81100BDF812100839059A60
:10303000083289B29847DEE7404B1B68002BDAD094
:103040009DF81100BDF812100839059A083289B2AE
:103050009847D0E73A4B1B68002BCCD09DF8110065
:10306000BDF812100839059A083289B29847C2E7AC
:10307000344B1B68002BBED09DF81100BDF8121018
:103080000839059A083289B29847B4E740F211220C
:10309000414630461D4B98472B481E4B98470D2004
:1030A0001D4B98476FF0010466E04FF406724146ED
:1030B0003046164CA04703992448A0470D20164BD4
:1030C0009847234B98470446002C55D199F8003077
:1030D000002B00F09F8099F80030013BDBB289F8AB
:1030E000003055E040F21E2241463046074B9847DB
:1030F0001848084B98470D20074B98473CE000BF05
:10310000252C4000A8CB4000893F400019774000A3
:1031100090CC4000F17740004177400038CC40002F
:103120003529400050CC400050C340203AC34020D5
:10313000A8CC4000E52B400044C3402048C34020B9
:103140003CC340204CC34020CCCC4000E0CC4000ED
:10315000812C4000FCCC40003BC34020E0CB400031
:103160004FF40972414630462C4B98472C482D4B62
:1031700098470D202C4B984740F243222B4930466C
:10318000264DA84721462A48A8470D20264B984798
:10319000B84704460028E3D103A941F27000254B4B
:1031A0009847044600289DD1039B13F0010F3FF47C
:1031B0007CAF214B9847039921F00101039141F223
:1031C00070001E4B984704460028D5D100221C4BA6
:1031D0001A70039DC5F38B05002D3FF457AF06A968
:1031E00041F8042D41F28400124B98470446002810
:1031F0003FF48AAE4FF4E77241463046074B98479A
:103200001048084B98470D20074B984701200A4B60
:10321000984759E7002007B0BDE8F08319774000D0
:1032200020CD4000F177400041774000E8CB4000DE
:1032300040CD4000713F4000352940007D3F4000B7
:103240003AC3402014CC40002DE9F04383B01C4623
:10325000002A18BF002903D005460F461646C8B9F4
:103260004CB10122344B1A70344B98470346184630
:1032700003B0BDE8F08340F2692231493148324B56
:1032800098473248324B98470D20324B98476FF0A1
:103290000B03ECE7694641F270002F4B9847034659
:1032A0000028E4D1DDF8008001A941F284002A4B16
:1032B000984703460028DAD1C8F38B0846451CD846
:1032C000019B9D4229D305EB06094344994524D827
:1032D000324639462846214B984703460028C6D136
:1032E000019A9044C84501D0002CC0D00122124B55
:1032F0001A70124B98470346B9E740F27A221049F8
:103300001048114CA047424631461548A0470D20B1
:10331000104B98476FF00B03A9E74FF42072084950
:103320000848094B98470F48094B98470D20094B0F
:1033300098476FF00B039AE73AC34020E52B400013
:10334000F8CB4000A8CB40001977400070CD40007A
:10335000F177400041774000713F4000893F4000D5
:1033600090CD4000D4CD400038B5431E062B1DD86B
:10337000DFE803F00804100C1C141800134B19604C
:10338000002038BD124B1960002038BD114B196068
:10339000002038BD104B1960002038BD0F4B19605C
:1033A000002038BD0E4B1960002038BD044640F2A5
:1033B000B9220C490C480D4DA84721460C48A84796
:1033C0000D200C4B98476FF00B0038BD44C34020D4
:1033D00050C3402048C3402040C340203CC340204D
:1033E0004CC3402004CC4000A8CB400019774000DB
:1033F00018CE40004177400010B50024094B1C60F6
:10340000094B1C60094B1C70094B1C70094B1C704C
:1034100009480A4B98470A4903200A4B9847204617
:1034200010BD00BF50C3402044C3402039C34020DA
:1034300038C340203BC34020D12B4000B52840007A
:10344000E12B40006933400030B59FB015462C2871
:103450002FD004461B283CD006284AD00E2826D060
:10346000322856D02F2864D0342877D0112800F085
:103470009580132800F0AA80042800F0B980652800
:1034800000F0C880092800F0D7802A2800F0E680E4
:10349000202800F0F5804FF4957287498748884DC1
:1034A000A84721468748A8470D20874B98471FB05B
:1034B00030BD0023042203A92846844CA0470028DD
:1034C000F5D1834B1B68002BF1D003A92C20984722
:1034D000EDE70023082203A928467C4CA0470028DA
:1034E000E5D17B4B1B68002BE1D003A91B2098473B
:1034F000DDE70123302203A92846744CA0470028A9
:10350000D5D1734B1B68002BD1D003A90620984757
:10351000CDE70023102203A928466C4CA0470028C1
:10352000C5D16B4B1B68002BC1D003A93220984733
:10353000BDE76422002103A8664B9847002364225C
:1035400003A92846614CA0470028B0D1604B1B68F6
:10355000002BACD003A92F209847A8E70023042212
:1035600003A92846594CA0470028A0D15A48544CDA
:10357000A0470399CBB20093C1F30723C1F30742DD
:10358000090E5648A0470D204F4B9847504B1B68DB
:10359000002B8CD000213420984788E70023504A24
:1035A0001370042203A92846484CA04700287FF442
:1035B0007EAF9DF80C204B4B1A70454B1B68002BBF
:1035C0003FF475AF03A91120984770E700232C2220
:1035D00003A928463D4CA04700287FF468AF3C4B28
:1035E0001B68002B3FF463AF03A9132098475EE7E5
:1035F000002304221CA92846344CA04700287FF44D
:1036000056AF334B1B68002B3FF451AF1CA904206D
:1036100098474CE7002304221CA928462B4CA047BE
:1036200000287FF444AF2A4B1B68002B3FF43FAFC8
:103630001CA9652098473AE70123642203A928467C
:10364000224CA04700287FF432AF214B1B68002B8F
:103650003FF42DAF03A90920984728E7012304224E
:1036600003A92846194CA04700287FF420AF184B27
:103670001B68002B3FF41BAF03A92A20984716E7CD
:103680000023082203A92846104CA04700287FF4F5
:103690000EAF0123BDF81020039905F10800A047E3
:1036A00000287FF404AF0A4B1B68002B3FF4FFAEE9
:1036B00003A920209847FAE640CE4000A8CB40005E
:1036C000197740009CCE40004177400049324000CD
:1036D00054C34020A92B400070CE40007CCE400057
:1036E00059C3402058C34020F0B58BB001238DF85A
:1036F0000730002851D00268294B1A600022294B5C
:103700001A700DF10700284B9847044610B1204667
:103710000BB0F0BD254B98470446002839D1244909
:103720000120244B984702A8234B98470446234F77
:103730003846234DA8479DF80E309DF80D209DF882
:103740000C102048A8470D201F4EB0473846A84708
:103750009DF811309DF810209DF80F101B48A847C8
:103760000D20B0473846A8470023032213211848EC
:10377000A8470D20B04714F10D0FC8D140F2D51263
:1037800014491548A8471548154B98470D20B047D0
:10379000BDE70020134B9847B9E76FF00B04B6E77D
:1037A00054C3402059C34020F1404000F933400049
:1037B00049344000693340004140400070CE400031
:1037C0001977400058CF40004177400074CF400047
:1037D00090CF40004CCE4000A8CB4000ACCF400082
:1037E000F1774000CD41400008B5014B984708BD36
:1037F000F52E40002DE9F041A0B080460D4614465C
:103800001E46BDF89870012A03D0002B38D0022A3A
:1038100045D06B1EDBB21F2B7AD8FF2F02D00D2FA5
:1038200000F285802A4641460DF15A007D4B9847AB
:1038300020AB1D44002305F8263CADF858709DF8D8
:103840009C30003318BF01238DF87B308DF8554034
:10385000032C7BD0022C00F0B480042C00F0CD802F
:10386000012C40F0D08000230293019300936C233D
:1038700005AA282101206C4CA04720B0BDE8F081AA
:1038800040F2032269496A486A4B98476A486B4B81
:1038900098470D206A4B98476FF00B00EDE71846EC
:1038A000684B98474028B4D13378A3F13A02D2B29A
:1038B000062A1ED9A3F13002D2B2362A19D8473BC4
:1038C000DBB2192B15D9314606F13F0011F8013F43
:1038D000A3F13A02D2B2062A0BD9A3F13002D2B236
:1038E000362A06D8473BDBB2192B02D98842EDD1E4
:1038F0008FE740F20F224D494D484E4B98475248B2
:103900004E4B98470D204E4B98476FF00B00B4E795
:1039100040F2192245494648464B98474B48474B89
:1039200098470D20464B98476FF00B00A5E740F2F3
:1039300022223E493E483F4B984745483F4B9847D7
:103940000D203F4B98476FF00B0096E73378013B13
:10395000DBB28DF81430032B13D87278531E8DF818
:10396000153002F0EF030B2B1BD1B11C0DF116002B
:103970002C4B9847737820AA1344002203F86A2C32
:1039800071E740F23922294929482A4CA0479DF87D
:1039900014103048A0470D20294B98476FF00B00BA
:1039A0006BE74FF4107221492148224CA0479DF843
:1039B00015102948A0470D20214B98476FF00B00A8
:1039C0005BE730461F4B9847431E9BB23F2B05D801
:1039D000421C314605A8134B984744E740F24F225A
:1039E00012491348134B98471C48144B98470D2015
:1039F000134B98476FF00B003FE73E22314605A876
:103A0000084B98472FE740F25F2208490848094BC6
:103A100098471348094B98470D20094B98476FF07A
:103A20000B002AE7952B40000D2D40005CCE400096
:103A3000A8CB400019774000B0CE4000F17740009D
:103A400041774000B72B4000C4CE4000D0CE4000AC
:103A5000E4CE4000F0CE40000CCF400028CF400024
:103A600044CF400010B582B000240194BDF810404E
:103A70000094024CA04702B010BD00BFF5374000D3
:103A800000207047F0B583B004464FF4A5550A4EA8
:103A90000A4F21462846B04754B102A9002341F8F5
:103AA000043D2846B8470028F3D1019B9C42F0D141
:103AB000002003B0F0BD00BF7D3F4000713F4000DB
:103AC0002DE9F04782B001203F4B984701A9012022
:103AD0003E4B9847824638B900244FF00108DFF882
:103AE0001891394D3A4F24E072223A493A483B4BFB
:103AF00098473B483B4B98470D203B4B98470BE082
:103B0000962234493448354B98473848354B9847C6
:103B10000D20354B9847B246504602B0BDE8F087BD
:103B2000019941F002014046C847009B13F0040F81
:103B3000F2D1019941F002014046C8474046A847EA
:103B400069462B4B1868214B984708B9009BBBB9B5
:103B5000274E0E2333604046A847694630681B4B0A
:103B6000984708B9009B5BB9214E13233360404648
:103B7000A84769463068154B984706460028BFD1CC
:103B80001B4E009B13F0040FC6D10134A7FB042386
:103B90005B0803EB43039C42C2D10220A84769465D
:103BA00030680A4B9847009B13F0040FE9D1AA2212
:103BB00008490948094B98470E480A4B98470D2079
:103BC000094B9847DDE700BFE9274000713F4000FF
:103BD000ABAAAAAAC8CF4000A8CB400019774000E2
:103BE0002CD04000F1774000417740004CD040009D
:103BF000140040206CD040007D3F400000B583B0F1
:103C000001A941F20840154B9847E8B9019941F4E0
:103C10008071019141F20840114B9847B8B901A950
:103C20004FF4D0500D4B9847A0B9019941F4803121
:103C300001914FF4D0500A4B9847002818BF6FF0FD
:103C4000050003B05DF804FB6FF00500F9E76FF0C5
:103C50000500F6E76FF00500F3E700BF713F400095
:103C60007D3F400010B582B0254B1C6824B1244B29
:103C70001C68204602B010BD19464FF48050214BFD
:103C8000984718B100221E4B1A60F2E701A941F2D1
:103C9000F4301C4B984718B10022194B1A60E8E722
:103CA000174B1B68184A93420DD0184A934211D003
:103CB000174A934218D0124A136823F4702343F42E
:103CC000A0231360D3E7019B012BF4D001320C4BEE
:103CD0001A60F0E7019B032BEDD0042B0CBF0132DF
:103CE0000C4A074B1A60E6E705494FF46C10054B88
:103CF00098470028DFD00022014B1A60B9E700BFC7
:103D00005CC34020713F4000A0021000B0021000D0
:103D1000F0001000B20210002DE9F041074641F218
:103D20001405284C284E2846A047002802DB012015
:103D3000B047F8E72548234B984710F0010F10D102
:103D4000DFF884801F4E224D0120C0474FF00C1039
:103D5000B04704462A4601461E481F4B9847AC42CE
:103D6000F2D1022F19D0032F22D0042F14BF002428
:103D700080241A4B9847C0F30B00B0F5687F0CBF46
:103D800044F002002046164B984716494FF00C109D
:103D9000154B98470020BDE8F08114491448124C97
:103DA000A0474FF4801141F28C00A0470024E0E7C7
:103DB0000E490F480C4CA047002141F28C00A0474F
:103DC0000024D6E7653F4000E9274000BC07020019
:103DD0009ED0AD1090D0400019774000653C400067
:103DE000853A4000612F52EF7D3F40007DD51C3C5D
:103DF000AC070200F0B583B041F28C030193184B7D
:103E000000930238C0B2012811D94FF0FF340020CE
:103E10000227144E144D009B984212D03846B047EA
:103E20000198A847013CF6D16FF004000EE00F4B5B
:103E30000193A3F12253A3F51113A3F2E9530093C5
:103E4000E3E7009A064B9A4202D0002003B0F0BD8F
:103E5000002141F28C00064B98470020F6E700BF96
:103E600036265302E9274000653F4000AC070200B8
:103E70007D3F4000F0B583B002A9002341F8043D26
:103E80004FF4A050274B984728BB019921F480613B
:103E900001914FF4A050244B9847054640BB0A249B
:103EA000204E214F01A94FF4A050B04705460028ED
:103EB0002BD1019911F4806F0AD021F48061019116
:103EC0004FF4A050B8470546631E13F0FF04E9D134
:103ED000284603B0F0BD40F2312214491448154B76
:103EE00098471548154B98470D20154B9847CCE738
:103EF00040F237220D490E480E4B984711480F4BA0
:103F000098470D200E4B9847E2E740F23E220749C2
:103F10000748084B98470C48084B98470D20084B1A
:103F20009847D5E7713F40007D3F4000D8CF400023
:103F3000A8CB400019774000E4CF4000F177400063
:103F400041774000FCCF400014D0400008B5014B41
:103F5000984708BD5D29400008B5014B984708BD4A
:103F6000552B400008B5014B984708BD0D4840004F
:103F700008B5014B984708BD2548400008B5014BDE
:103F8000984708BD3D4840002DE9F047074689465F
:103F90001546124BB3F80080A8F108081FFA88F8FC
:103FA000424519D944460026DFF834A0424609EBC1
:103FB00006013846D047034658B92D1B26442744EE
:103FC000A542F3D8AAB209EB06013846044B98473C
:103FD00003461846BDE8F0870026F3E710004020AE
:103FE0007D4940002DE9F047074689461546124BAA
:103FF000B3F80080A8F108081FFA88F8424519D9DB
:1040000044460026DFF834A0424609EB0601384654
:10401000D047034658B92D1B26442744A542F3D860
:10402000AAB209EB06013846044B984703461846E6
:10403000BDE8F0870026F3E710004020514A400019
:1040400030B583B0044602A9002341F8043D24485A
:10405000244B98470546019A234B9A4239D0019B3D
:104060001A0C91B2080AE071C1F30311217202F037
:104070000F0262729AB2110A2171C2F303126271C5
:1040800003F00F03A371194B984720602279A3799D
:1040900003F00F0343EA022362791201D2B2134301
:1040A000E179627A02F00F0242EA0122217A0901E3
:1040B000C9B20A4341F230318A4288BF6FF00C0521
:1040C00041F22F3293428CBF28466FF00C0003B0B0
:1040D00030BD01A941F24800024B98470546BEE7B2
:1040E000AC070200713F4000C3C15DD7653C400092
:1040F00038B500283AD00478631EDBB2042B28BF01
:1041000001240020214B98470546002830D1204843
:10411000204DA847204B984701462048A8470D202E
:104120001F4B98471F4B984720461F4B9847054603
:10413000C0B920461D4B9847054698B9023CE4B2E9
:10414000012C11D91A4B9847054668B14FF4AE724D
:10415000184919480F4B98471848194B98470D2094
:104160000F4B9847174B9847284638BD0124C8E79E
:104170004FF492720F491048064B98471248104B63
:1041800098470D20064B9847EEE700BF4D3F400093
:1041900070CE400019774000653C400058D1400087
:1041A0004177400055484000193D4000F53D400032
:1041B000FD3B4000A0D04000A8CB40001CD14000F7
:1041C000F1774000593F40003CD1400010B51C4BF6
:1041D000984758B900201B4B98470446A8B91A4B7A
:1041E00098470446F0B9194B98470CE004464FF441
:1041F000BA7217491748184B98471848184B9847F0
:104200000D20184B9847204610BD40F27B121049F4
:104210001048114B98471448114B98470D20114BEB
:104220009847F0E740F2811209490A480A4B98473B
:104230000E480B4B98470D200A4B9847E3E700BF09
:10424000753E4000F1524000593F40000148400097
:10425000ACD04000A8CB400019774000BCD0400053
:10426000F177400041774000DCD0400000D14000B1
:1042700000B585B0002301930290ADF80C1001A9A0
:104280000320024B984705B05DF804FB792A4000F3
:104290002DE9F04182B0054600F13B03DBB2012B72
:1042A00028D9CF2826D00B244FF00108254F4146AE
:1042B0000DF10700B847064628BB9DF80730AB4212
:1042C0002FD0631E13F0FF04F1D10B2401271D4DE5
:1042D00039460DF10700A84728BB9DF80730002B91
:1042E0002ED0631E13F0FF04F2D10126304602B037
:1042F000BDE8F08101210DF10700124B984700281D
:10430000D1D00026F2E740F227120F490F48104B98
:1043100098471048104B98470D20104B984700269F
:10432000E4E70B24D2E740F2351207490748084B6F
:1043300098470848084B98470D20084B9847D5E701
:104340000126D3E77142400070D14000A8CB400065
:1043500019774000A8D54000F17740004177400030
:104360002DE9F04F85B083468A4617464FF0000985
:104370003A4D29E040F2571239493A483A4B9847AA
:104380003A483B4B98470D203A4B984700230193FE
:10439000019805B0BDE8F08F002C2EDD41460BEBF7
:1043A0000900A8470446002835D11FB9324B1B78B5
:1043B000002B3DD0C1440FFA89F9AAEB080A1FFA75
:1043C0008AFABAF1000F46D0D046BAF5005F28BF8E
:1043D0004FF400580A24012631460DF10B00A8477E
:1043E00001900028C6D19DF80B301B090F2BD3D0AC
:1043F000013C24B2B4F1FF3FEED140F26312184900
:104400001848194CA0479DF80B101C48A0470D20D8
:10441000184B9847BCE74FF4B67211491148124B3C
:1044200098471748124B98470D20124B9847AFE713
:10443000022103A8A8470028BCD040F277120849FF
:104440000848094B98470F48094B98470D20094BDE
:10445000984701949CE70123019399E7714240003A
:104460007CD14000A8CB400019774000DCD540004B
:10447000F17740004177400060C3402010D64000F3
:1044800040D6400070D6400000B585B001900023B2
:104490000293ADF80C1001A90320024B984705B018
:1044A0005DF804FB792A400070B584B09DF8204087
:1044B0008DF80400C1380E2800F2A480DFE800F077
:1044C000454566192A3354547F08A2A2A2A23C0093
:1044D0000B0C8DF805300B0A8DF806308DF807109F
:1044E0000521564B1B78002B00F08E800139C9B294
:1044F0009CE0C1F3072344B98DF805308DF8061010
:1045000000238DF807300521EBE763F07F038DF87A
:104510000530F3E700238DF805308DF806308DF86F
:1045200007300521DDE700238DF805308DF80630D2
:104530008DF807300521D4E7FF238DF805308DF87D
:1045400006308DF807300521CBE70A0C8DF80520E1
:104550000A0A8DF806208DF807101A0A8DF808202F
:104560008DF809300721BCE70A0C8DF805200A0AEE
:104570008DF806208DF807101A0C8DF808201A0AFD
:104580008DF809208DF80A300821AAE7C1F3072326
:1045900084B98DF805308DF80610130E8DF80730AC
:1045A000130C8DF80830130A8DF809308DF80A20A5
:1045B000082196E763F07F038DF80530EBE70B0CDD
:1045C0008DF805300B0A8DF806308DF80710130EA4
:1045D0008DF80830130C8DF80930130A8DF80A3065
:1045E0008DF80B2009217CE74FF48472144915489B
:1045F000154B98471548164B98470D20154B984773
:10460000002019E0002017E04E1E01AB9D197F200D
:104610001A46114C12F8013B83EA4003E05C9542D4
:10462000F8D104AB1E44430006F80C3C01A80B4B28
:1046300098470028D8D1012004B070BD60C3402045
:1046400068D14000A8CB4000197740007CD54000DD
:10465000F177400041774000E4D1400089444000B8
:1046600070B582B00446312835BF01230023C3252D
:10467000C925009304230A4601462846164EB04732
:1046800001280ED040F2EB1214491548154DA847E9
:1046900021461548A8470D20144B9847002002B02A
:1046A00070BD2846124B98470128F8D040F2F1120D
:1046B0000A490B480B4DA84721460E48A8470D2034
:1046C0000A4B984700240094234622462146CF20D7
:1046D000014DA8472046E2E7A94440009CD1400094
:1046E000A8CB40001977400024D740004177400014
:1046F0009142400050D740002DE9F04184B004467B
:104700008846B0F5807F35BF01260026C425CA251E
:10471000009604230022014628462E4FB847012860
:104720000FD040F245222C492C482D4DA847214658
:104730002C48A8470D202C4B9847002004B0BDE81A
:10474000F0812846294B9847012815D040F24B228A
:1047500021492248224DA84721462548A8470D2037
:10476000214B984700240094234622462146CF201F
:10477000184DA8472046E1E73246042103A81D4B07
:104780009847012810D19DF80D209DF80E301B048C
:1047900043EA02239DF80C2013439DF80F2043EABF
:1047A0000263C8F80030C9E740F253220A490B48B7
:1047B0000B4B98471048114B98470D200A4B9847D0
:1047C00000240094234622462146CF20014DA847CD
:1047D0002046B3E7A9444000BCD14000A8CB40002C
:1047E00019774000A4D64000417740009142400034
:1047F000D0D640006143400004D74000F17740002C
:104800000020014B1870704760C3402000B583B092
:1048100001A9034B9847019803B05DF804FB00BF62
:10482000F946400008B5044B984701280CBF00200A
:104830006FF0050008BD00BFF946400008B5044B05
:10484000984701280CBF00206FF0050008BD00BF8D
:104850006146400010B582B0002302A941F8083D2E
:10486000384A13704EF62400374B984748B3354BFF
:104870001B787BB9009921F07C0141F05001009137
:104880004EF62400314B9847044600283DD00122C3
:104890002C4B1A7001A94FF480502B4B98470028DD
:1048A00040D04EF624002A4B984720F0700141F08A
:1048B00050014EF62400274B98470024204602B0B2
:1048C00010BD01221F4B1A7040F2C5222249234815
:1048D000234B98472348244B98470D20234B984758
:1048E00069464EF62400184B984704460028BED16E
:1048F0004FF4327218491948194B98471C481A4B03
:1049000098470D20194B9847D8E740F2D222124918
:104910001248134B98471748134B98470D20134BD9
:104920009847CBE74FF437720B490C480C4B98472C
:1049300011480D4B98470D200C4B98476FF005041C
:10494000BCE700BF60C34020F9464000614640001C
:104950000D4840003D484000D8D14000A8CB400061
:1049600019774000E4D24000F177400041774000E1
:1049700034D3400060D3400094D34000F0B583B0FE
:1049800004460F461546002200922B460146C820D9
:10499000244EB04701280FD04FF41D7222492348FE
:1049A000234DA84721462348A8470D20224B98476E
:1049B0006FF0050003B0F0BDC820204B98470128D8
:1049C00013D040F27A2218491848194DA8472146B9
:1049D0001B48A8470D20184B9847002100910B4613
:1049E0000A46CF200F4CA047E2E70022294638466E
:1049F000144B9847012813D04FF421720A490B48F1
:104A00000B4B98471048114B98470D200A4B98477D
:104A1000002100910B460A46CF20024CA047C7E771
:104A20000020C7E7A9444000CCD14000A8CB4000FB
:104A300019774000B8D340004177400091424000D0
:104A4000E8D340006143400020D44000F1774000AB
:104A50002DE9F04385B004468846154600220092B1
:104A60002B460146C720524EB047012810D040F2D5
:104A70000F2250495048514DA84721465048A84759
:104A80000D20504B98476FF0050005B0BDE8F0834E
:104A9000C7204D4B9847012813D040F215224549B5
:104AA0004548464DA84721464848A8470D20454B54
:104AB0009847002100910B460A46CF203C4CA04766
:104AC000E1E70024ADF80C40414FDFF820911DE0F4
:104AD000B5F5005F94BF0323022363F00F038DF845
:104AE0000B3001210DF10B00B847E8B9314608EB56
:104AF0000400B847002839D199F80030002B42D083
:104B0000344424B2AD1BADB2002D4ED02E46B5F5C7
:104B1000005F28BF4FF40056002CD9D1B5F5005FD7
:104B200094BF03230123D8E74FF4D47229492248C4
:104B3000224B98472848294B98470D20214B9847EE
:104B400040F226221B491C481C4B98472448234B03
:104B500098470D201B4B984700240094234622467B
:104B60002146CF20124DA84720468EE740F2B112D1
:104B700018491148114B98471A48184B98470D206F
:104B8000104B9847DCE7022103A8B8470028B7D0AC
:104B900040F2BB120F490848084B984712480F4B88
:104BA00098470D20074B9847CAE700206DE700BFE4
:104BB000A9444000ACD14000A8CB40001977400088
:104BC00048D44000417740009142400078D44000F2
:104BD000894440008CD14000B0D44000F1774000BF
:104BE00054D54000E8D440001CD5400060C34020AC
:104BF0002DE9F84FBDF8284094B181460E46924603
:104C0000984603012349CB5853B101EB00139B880D
:104C10009BB22BB101EB00139B7ADBB2012B01D0CD
:104C2000BDE8F88FF48001EB0017DFF880B006E0F4
:104C3000254601230BE0641BA4B2A844ECB1BB8859
:104C4000E31A1BB2002BF3DDBD88ADB20023396837
:104C50002A464046D84790B93B683360B580F38810
:104C60005B1BF3800C4B1B68002BE4D00A4B1B68CA
:104C70003246514648469847DDE7BDE8F88F074879
:104C8000074DA84721460748A8470D20064B9847DF
:104C9000C6E700BFCCCA40207CCB402070CE40008D
:104CA0001977400088D740004177400049324000E2
:104CB000F0B599B01446412849D00D4642285FD03E
:104CC000432875D0442800F0B0804B2800F0AD8018
:104CD0004A2800F0CC80A0F14603DBB2072B00F29B
:104CE000F480852222FA03F313F0010F00F0ED8027
:104CF000482814BF062709270023102203A92046AD
:104D0000934EB047002840F0B0809DF91800BDF8E0
:104D10001A10904A02EB001200231373BDF914E03D
:104D2000BDF81630BDF80E60ADF82660049E0A96F8
:104D3000D28892B2914200F0AC80102D40F2958062
:104D40000123002211461046814CA0478DE000232C
:104D5000042207A920467E4CA047002840F0858009
:104D60009DF81D308DF80C307B4B1B68002B7CD0E0
:104D7000794B1B6803AA01219DF91C00984774E038
:104D80000023042207A92046714CA04700286CD1BB
:104D90009DF81D308DF80C306F4B1B68002B64D0D4
:104DA0006D4B1B6803AA02219DF91C0098475CE02B
:104DB00000230C220DEB02012046654CA047002881
:104DC00053D19DF91530002B19DB624A02EB031217
:104DD0000021D1720121917260490A88013292B298
:104DE0000A800A8892B21AB90A88013292B20A80FD
:104DF0005A4A118889B2574A02EB0312D1808DF8C2
:104E00001C300223ADF82030BDF80E30ADF8223052
:104E1000049B0993504B1B683BB34F4B1B6807AA7D
:104E200004219DF9140098471FE00023042207A9DC
:104E30002046474CA047C0B99DF91C008DF80C00D6
:104E40009DF91D308DF80D303BB9BDF81E30083B83
:104E50009BB2404A02EB001213813F4B1B6823B107
:104E60003D4B1B6803AA0521984719B0F0BD0023EC
:104E7000442207A92046364CA0470028F5D1384BDC
:104E80001B68002BF1D0364B1B68179907A8984771
:104E9000EBE7BEF1000F01DDAE450DDBADF820E024
:104EA000002307932C4B1B68002BDED02A4B1B687A
:104EB00007AA39469847D8E71FFA8EF20092234492
:104EC0003A4607A9274CA047CFE700F0FD03452B42
:104ED00019D04C2817D05228C7D10123142207A972
:104EE00020461B4CA0470028BFD11F4B089A1A60D0
:104EF0001B68002BB9D01C4B1B689DF82C2009990E
:104F000007989847B1E7472814BF072508250023CD
:104F1000082207A920460E4CA0470028A5D19DF9DC
:104F20001C00BDF82020BDF81E30ADF80C30094B38
:104F300003EB0013DB889BB29A4296D1064B1B68A9
:104F4000002B92D0044B1B6803AA294698478CE794
:104F500049324000CCCA40207CCB402062C3402074
:104F600084CB4020F14B400080CB402008B50A4B59
:104F70001B7803B108BDB02200210848084B9847B0
:104F800008490220084B98470122034B1A7000225F
:104F9000064B1A80EEE700BF61C34020CCCA402018
:104FA000A92B4000B14C40006933400062C340204F
:104FB000024B1860024B1960704700BF7CCB402049
:104FC00084CB4020F0B587B0022858D1012959D0B0
:104FD000022916D10B26072425462E4B03EB04137A
:104FE0009B7A002B51D0631CDBB22A4FDCB2B44257
:104FF00040D21D4607EB0311897A581C21B10346A4
:10500000F4E74FF0FF3437E0224800EB0310164678
:1050100010220021204B98471E4B03EB0513012261
:105020009A721E4A138801339BB2138013889BB275
:105030001BB9138801339BB21380184B1A8892B2A4
:10504000144B03EB0513DA8064B216F0010F13D092
:1050500006AA02F8044D0F4B03EB05152123EB7252
:1050600000230293019300930423502102200C4D4E
:10507000A84701E04FF0FF34204607B0F0BD4FF0E5
:10508000FF34F9E707260024A6E7024800EB0410E6
:10509000BDE700BFCCCA4020A92B400062C340201E
:1050A0000D2D400030B589B0041E36DB002934D008
:1050B0001D4B03EB04139B7ADBB2002A30D0012B8B
:1050C0002ED1194B03EB0413DB7A13F0010F22D01E
:1050D000154B03EB0413DB7A8DF81D304B258DF84F
:1050E0001C40082205A8114B98470F4800EB0410FC
:1050F000C388ADF81E3000230293019300930C2364
:1051000005AA294602200A4CA047002818BF6FF0C4
:10511000080009B030BD4425E1E76FF00500F8E76D
:105120006FF00500F5E700BFCCCA4020952B40008A
:105130000D2D400030B589B00C46003118BF01215B
:10514000B2F5AF6F88BF0021002937D0002835DBCA
:105150001D4B03EB00139B7ADBB2012B31D18DF891
:105160001000ADF81220184B03EB0013DB88ADF8EC
:105170001C300728B4BF50254425134B03EB001304
:10518000DB7A13F0010F17D00F4B03EB00100589EA
:10519000ADB24C2102950192009410230DEB030255
:1051A00041F080010220094CA04700280CBF0020DC
:1051B0006FF00D0009B030BD4521EBE76FF0050041
:1051C000F8E76FF00500F5E7CCCA40200D2D400050
:1051D000002918BF002A44D070B586B00E46154687
:1051E000002836DB204A02EB0012927AD2B2012A62
:1051F00032D11D4C0101621866509580127B002A45
:105200002DD104EB001201211173D27A0A40002A39
:105210000CBF46214D21D3B94FF0FF3304938DF8D5
:105220001400114B03EB0010C388ADF816300023B7
:10523000029301930093082304AA02200B4CA04779
:1052400000280CBF00206FF00D0006B070BD049365
:10525000E5E76FF00500F8E76FF00500F5E70020DF
:10526000F3E76FF005007047CCCA40200D2D4000D9
:1052700030B587B0041E2FDB1A4B03EB04139B7A67
:10528000DBB2012B2BD18DF81440164B03EB04132A
:10529000DA88ADF8162000229A72DA80DB7A03F001
:1052A000010393420292019200924FF0040305AA77
:1052B0000CBF49214E2102200B4DA847051E18BFE7
:1052C0006FF0080510220021064800EB0410074B80
:1052D0009847284607B030BD6FF00505F9E76FF035
:1052E0000505F6E7CCCA40200D2D4000A92B400053
:1052F00070B582B005462B4B9847C0F30B00B0F554
:10530000687F03D20024204602B070BD01A941F29B
:105310001040254B984704460028F4D1234B019AAE
:10532000134023491943019141F21040214B984702
:1053300005B3002120481F4DA847AB211F48A847AF
:1053400001211F48A84700211E48A84781211E4867
:10535000A8471E4E1E4D3046A8470128FBD11349D1
:10536000019B194041F48031019141F21040114BF1
:105370009847C8E7002110480E4DA847B9210F48AB
:10538000A84701210E48A84700210E48A8478121BF
:105390000D48A8470D4E0E4D3046A8470128FBD1B9
:1053A000DDE700BF653C4000713F4000FF8F88F89B
:1053B000001011017D3F4000080201000C020100B5
:1053C000140201001C020100040201001802010085
:1053D000653F400010B51048104B98473E21002013
:1053E0000F4B98470F4CA0470028FCD00E4B984716
:1053F0000E4A0F4B9A620F4CA0470028FCD00220A7
:105400000D4B984700200D4B98470D4B984702488D
:10541000024B984710BD00BF00A3E111016140009D
:10542000195B40006D5B40007D5B4000013F182030
:1054300000060E408D5B40007D5A4000B55A40008A
:10544000F55F40002DE9F04180B90C469046002AF6
:105450000FDD8F18084E094D306821462B6898479C
:105460000134BC42F8D14046BDE8F0814FF0FF382E
:10547000F9E78046F7E700BF90CB402088CB40207B
:105480000138022815D82DE9F0410E4614469AB18C
:105490000D46DFF838800C4FD8F8000015F8011BD6
:1054A0003B68984700280ADBA81B013CF4D1BDE803
:1054B000F0814FF0FF3070471046BDE8F0814FF0AB
:1054C000FF30BDE8F08100BF8CCB402090CB402066
:1054D000F8B54FF400425C4B5A60BFF34F8FBFF3F7
:1054E0006F8F5A4B0022C3F850225A6942F400329F
:1054F0005A61BFF34F8FBFF36F8FD3F88070C7F33C
:105500004E3607F007000430C7F3C907B7FA87FE25
:105510000EF01F0EBFF34F8F4FF0FF3404FA00FC64
:1055200006FA00F004FA0EF407FA0EFE1D463A469B
:10553000734640EA0301C5F86012013A2344B2F110
:10554000FF3FF6D1013E6044B6F1FF3FEFD1BFF31C
:105550004F8F3E4B5A6942F480325A61BFF34F8FEE
:10556000BFF36F8F3A4A3B495160A1F5807151609A
:10557000BFF34F8FBFF36F8FD3F8902222F0010259
:10558000C3F89022D3F8942222F00102C3F89422A7
:10559000BFF34F8FBFF36F8F0A202F4CA0470B2014
:1055A000A0470C20A0471020A0471120A0472B4B5C
:1055B0004FF480721A61C3F8A0201A63A3F58063C8
:1055C0004FF400625A61C3F8A0205A66C3F89020D5
:1055D0005A651A62C3F88420196F21F400611967B3
:1055E000596F21F400615967C3F8C020C3F8D42073
:1055F000C3F8B0204FF400121A66C3F890205A6521
:105600005A62C3F88020196F21F400111967596F8D
:1056100021F4001159675A60114AD2F8143143F04D
:105620001003C2F814310F4B10221A66C3F89020F1
:105630005A655A62C3F88020196F11431967596F70
:10564000114359675A60F8BD50180E4000ED00E054
:10565000000C0E400C08005A9D5B400000120E40EA
:105660000080084000100E400AB90166704741668C
:1056700070474264B1F1C05F3AD013D8B1F1006F06
:1056800025D0B1F1805F0AD1036F13430367436FE5
:10569000416F0B4023EA02034367426070470029D1
:1056A000FBD17047B1F1205F21D009D8B1F1005F83
:1056B000F3D1036F13430367436F13434367ECE76F
:1056C000B1F1405F13D0B1F1605F10D0E5E710B4E5
:1056D000016F046FD34321401C4619400167436F9B
:1056E000416F0B402340436742605DF8044B7047B5
:1056F000036F016F0B4023EA02030367436F1343F9
:105700004367CAE7416412F0010F0DD1016612F040
:105710000A0F0BD0016212F0020F09D112F0080F2C
:1057200008D0C0F8841005E04166F0E74162F2E776
:10573000C0F8801041610160704710B4019C416461
:105740004CB901664BB101654AB941630161016021
:105750005DF8044B70474166F4E74165F4E7016387
:10576000F4E712F0100F12D0C0F8B01012F0200FB2
:1057700007D0C0F8D41012F0400F05D0C0F8C01008
:105780007047C0F8D010F6E7C0F8C4107047C0F8F2
:10579000B41070470164704741647047C06C704733
:1057A000806C704770B582B00D46464C04EB5014C7
:1057B000640201F0F043B3F1005F59D00AD8B3F1AD
:1057C000805F2FD0B3F1C05F3FD0B3F1006F16D030
:1057D000002012E0B3F1405F5DD0B3F1605F5AD0BA
:1057E000B3F1205FF4D100F01F0101262A4606FA2A
:1057F00001F12046344B9847304602B070BD00F0AE
:105800001F000126864032464FF0006120462F4B94
:10581000984715F0010F02D126660120EDE7666674
:105820000120EAE700F01F000126864032464FF0D3
:1058300080512046254B984715F0010F02D126666E
:105840000120DAE766660120D7E700F01F00012695
:10585000864032464FF0C05120461C4B984715F009
:10586000010F02D126660120C7E766660120C4E762
:1058700000F01F000126864032464FF000512046BE
:10588000124B984715F0010F02D126660120B4E7AC
:1058900066660120B1E705F0605200F01F010126A5
:1058A00005EA06030093C5F38003B2F1605F14BFFD
:1058B0000022012206FA01F12046054CA04730469D
:1058C0009BE700BF070720000557400073564000C4
:1058D0003B5740002DE9F041044688460E4B98475F
:1058E000054620460D4B9847054013D00C4C04F15B
:1058F000600603E0B4420DD010345DB1206840452D
:10590000F8D161682942F5D0E3689847636825EAD1
:105910000305EFE7BDE8F0819D574000A157400027
:1059200064C34020F8B5184C2668062E2AD84FF0DC
:10593000000C6446154F04E00134E4B2A446A642CC
:1059400009D3A64625017D598D42F5D107EB0415F3
:105950006D689542F0D10D4D4FEA0E1E05EB0E0419
:1059600045F80E106260A3600699E1600136664555
:1059700005D011461A46064B98470020F8BD02494B
:105980000E60F6E70120F8BDD4C3402064C3402078
:105990006357400008B50A210148024B984708BDEB
:1059A000000E0E40D558400008B50B210148024BAF
:1059B000984708BD00100E40D558400008B50C218E
:1059C0000148024B984708BD00120E40D5584000D0
:1059D00008B510210148024B984708BD00140E403D
:1059E000D558400008B511210148024B984708BD21
:1059F00000160E40D5584000F8B506460D46144630
:105A0000174B984707464FF0FF313046154B9847E4
:105A10003046154B98475FFA85FE0EF01F030122B2
:105A200002FA03F36809114901EB8002C2F88030E1
:105A3000C2F88031002D0ADB6401E4B20C4A5455EF
:105A400041F82030394630460A4B9847F8BD0EF0F1
:105A50000F0E6401E4B2084A02F80E40F0E700BFFE
:105A6000A1574000995740009D57400000E100E0D9
:105A700000E400E09557400014ED00E0032811D049
:105A8000042812D002280CBF4FF480710021084A6C
:105A9000136B23F440730B431363936E13F0080FDF
:105AA000FBD070474FF44071F1E74FF40071EEE71F
:105AB00000060E40174A136B23F07003184310635F
:105AC000936E13F0080F0AD14FF4805311498A6E78
:105AD00012F0080F03D1013BF9D1012070470D4AA4
