:020000040040BA
:1000000050254020A9074000A5074000A507400053
:10001000A5074000A5074000A5074000000000001C
:10002000000000000000000000000000A5074000E4
:10003000A507400000000000A5074000A5074000FC
:10004000A5074000A5074000A5074000A507400000
:10005000A5074000A5074000A5074000A5074000F0
:10006000A5074000000000005902400025034000A1
:10007000F1034000A5074000A5074000A507400088
:10008000BD04400089054000A5074000A5074000C9
:10009000A5074000A5074000A5074000A5074000B0
:1000A000A5074000A5074000A5074000A5074000A0
:1000B000A5074000A5074000A5074000A507400090
:1000C000A5074000A5074000A5074000A507400080
:1000D00000000000A507400000000000A507400048
:1000E000A5074000A5074000A5074000A507400060
:1000F000A5074000A5074000A5074000A507400050
:10010000A5074000A5074000A5074000A50740003F
:10011000A5074000000000000000000000000000F3
:10012000A5074000A5074000A5074000A50740001F
:10013000A507400000000000A5074000A5074000FB
:1001400010B5054C237833B9044B13B10448AFF311
:1001500000800123237010BD3C04402000000000FB
:100160003C0E40000C4B43B10C480D4910B5AFF3A9
:1001700000800C48036823B910BD0A48036833B9EE
:100180007047094B002BF7D0BDE810401847064BCD
:10019000002BF5D0184700BF000000003C0E4000C7
:1001A000400440203C0E40000000000070B51048A4
:1001B000104DA8473E2100200F4B104C9847A047F8
:1001C0000028FCD00E4B98470E4C0F4B0F4A9A62FA
:1001D000A0470028FCD002200D4B98470D4B002073
:1001E00098470D4B98472B460148BDE8704018478B
:1001F00000A3E11149094000D90640002D07400045
:100200003D0740004D07400000060E40013F18200A
:1002100055064000850640006108400010B4019C6E
:10022000416494B141663BB1016542B941635DF8F7
:10023000044B0161016070474165002AF6D00163FB
:100240005DF8044B0161016070470166EBE700BF98
:10025000C06C7047806C704770B52E4B2E48984725
:1002600005462E4B2C489847054015D02C4C20684D
:100270000A2819D020690A281FD0206A0A2825D008
:10028000206B0A282BD0206C0A2831D0206D0A2838
:1002900037D0206E0A2800D070BD616E2942FBD095
:1002A000E36EBDE87040184761680D42E2D0E36834
:1002B000984763689D43EFD0DCE761692942DCD051
:1002C000E369984763699D43E6D0D6E7616A2942AE
:1002D000D6D0E36A9847636A9D43DDD0D0E7616B6F
:1002E0002942D0D0E36B9847636B9D43D4D0CAE7D3
:1002F000616C2942CAD0E36C9847636C9D43CBD0B4
:10030000C4E7616D2942C4D0E36D9847636D9D4396
:10031000C2D0BEE751024000000E0E405502400020
:100320005804402070B52E4B2E48984705462E4B5A
:100330002C489847054015D02C4C20680B2819D024
:1003400020690B281FD0206A0B2825D0206B0B2892
:100350002BD0206C0B2831D0206D0B2837D0206E8D
:100360000B2800D070BD616E2942FBD0E36EBDE862
:100370007040184761680D42E2D0E36898476368AF
:100380009D43EFD0DCE761692942DCD0E3699847FF
:1003900063699D43E6D0D6E7616A2942D6D0E36A15
:1003A0009847636A9D43DDD0D0E7616B2942D0D086
:1003B000E36B9847636B9D43D4D0CAE7616C2942D5
:1003C000CAD0E36C9847636C9D43CBD0C4E7616DA2
:1003D0002942C4D0E36D9847636D9D43C2D0BEE708
:1003E0005102400000100E405502400058044020C9
:1003F00070B52E4B2E48984705462E4B2C489847F3
:10040000054015D02C4C20680C2819D020690C28E8
:100410001FD0206A0C2825D0206B0C282BD0206CF4
:100420000C2831D0206D0C2837D0206E0C2800D03D
:1004300070BD616E2942FBD0E36EBDE87040184785
:1004400061680D42E2D0E368984763689D43EFD04E
:10045000DCE761692942DCD0E369984763699D4321
:10046000E6D0D6E7616A2942D6D0E36A9847636A44
:100470009D43DDD0D0E7616B2942D0D0E36B984734
:10048000636B9D43D4D0CAE7616C2942CAD0E36C48
:100490009847636C9D43CBD0C4E7616D2942C4D0BB
:1004A000E36D9847636D9D43C2D0BEE751024000A3
:1004B00000120E40550240005804402070B52E4BEB
:1004C0002E48984705462E4B2C489847054015D096
:1004D0002C4C2068102819D0206910281FD0206AC1
:1004E000102825D0206B10282BD0206C102831D05C
:1004F000206D102837D0206E102800D070BD616E9E
:100500002942FBD0E36EBDE87040184761680D4298
:10051000E2D0E368984763689D43EFD0DCE7616908
:100520002942DCD0E369984763699D43E6D0D6E76A
:10053000616A2942D6D0E36A9847636A9D43DDD059
:10054000D0E7616B2942D0D0E36B9847636B9D4342
:10055000D4D0CAE7616C2942CAD0E36C9847636C77
:100560009D43CBD0C4E7616D2942C4D0E36D984769
:10057000636D9D43C2D0BEE75102400000140E409F
:10058000550240005804402070B52E4B2E48984725
:1005900005462E4B2C489847054015D02C4C20681A
:1005A000112819D0206911281FD0206A112825D0C0
:1005B000206B11282BD0206C112831D0206D1128F0
:1005C00037D0206E112800D070BD616E2942FBD05B
:1005D000E36EBDE87040184761680D42E2D0E36801
:1005E000984763689D43EFD0DCE761692942DCD01E
:1005F000E369984763699D43E6D0D6E7616A29427B
:10060000D6D0E36A9847636A9D43DDD0D0E7616B3B
:100610002942D0D0E36B9847636B9D43D4D0CAE79F
:10062000616C2942CAD0E36C9847636C9D43CBD080
:10063000C4E7616D2942C4D0E36D9847636D9D4363
:10064000C2D0BEE75102400000160E4055024000E5
:1006500058044020023802280DD8084B53F82000D7
:1006600007490B6B0A4623F4407303430B63936EF5
:100670001B07FCD570470020F2E700BF080E4000C2
:1006800000060E4013490B6B23F0700318430863F8
:100690008B6E180707D44FF4805301E0013B16D04E
:1006A0008A6E1207FAD50B490B6B23F0030343F054
:1006B00002030B638B6E180707D44FF4805301E0DD
:1006C000013B04D08A6E1207FAD500207047012042
:1006D000704700BF00060E40A0B90E4B09020E483D
:1006E00089B21A4630B40D4C1D6A2C402043014398
:1006F0001962936EDB07FCD5116A094B0B43136239
:1007000030BC70470349074A086A074B024013434D
:100710000B62704700060E4001003700FCFFC8FF67
:1007200000003701FCFFC8FE02003701024B986E43
:1007300000F48030704700BF00060E40024B4FF0BF
:1007400000529A62704700BF00060E40024B986E3E
:1007500000F00200704700BF00060E403F281AD884
:100760001F280AD801230E4A03FA00F0916930EAE3
:10077000010312D010610020704701232038084A7D
:1007800003FA00F0D2F8083130EA030305D0C2F8CA
:10079000000100207047012070470020704700BF13
:1007A00000060E40FEE700BF20492148814210B5F7
:1007B00082B009D01F4B984206D2C2431E4C1A4445
:1007C00022F003020432A0471C481D4B984207D276
:1007D000C24300211B4C1A4422F003020432A047FA
:1007E000194B1A4A23F07F039360EFF31083B3FA97
:1007F00083F35B09019372B6BFF35F8F144A002342
:100800001449137001980B6843F470030B60BFF335
:100810004F8FBFF36F8F20B101231370BFF35F8F32
:1008200062B60D4B98470D4B9847FEE73C0E4000D3
:10083000000040203C044020190B40003C044020B4
:100840004C0540204D0C40000000400000ED00E051
:100850000A00402088ED00E0C90A40007D0A4000FF
:10086000324A136B03F00303012B3CD025D3022B38
:100870000DD02F4803682D490A6B02F07002702AD0
:100880002BD00A6BC2F30212D34003607047136A85
:100890002748DB013AD5274B036024490A6B02F055
:1008A0000302022AE7D18A6A896AC2F30A42C9B2FC
:1008B00002FB0333B3FBF1F3DDE71F4B1B495B691D
:1008C0000A6B13F0800F1A4802F0700214BF4FF445
:1008D00000434FF4FA43702AD3D1184AA2FB0323F2
:1008E0005B0803607047136AD9010CD4104814499F
:1008F0000160126A02F07002102A11D00D4B202AFA
:1009000018BF0B46B7E70B4B0948B4E70C4B036025
:10091000126A02F07002102A04D0202ABBD0BCE771
:10092000084BA8E7074B0360B7E700BF00060E407F
:100930000C004020001BB70010180E40ABAAAAAA5A
:1009400000093D0000127A00124B984215D9124B53
:1009500098420ED9114B984218D9114B984211D98F
:10096000104B9842104B94BF4FF004220F4A1A606C
:1009700070470D4B0E4A1A6070470B4B4FF0806268
:100980001A607047084B0B4A1A607047064B0A4AB8
:100990001A607047FF2C3101FF596202FF869303F2
:1009A000FFB3C404FFE0F505000C0E400005000491
:1009B00000010004000300040002000410B5074B0E
:1009C00082B004460A20984700232246102104489A
:1009D000044C0093A04702B010BD00BF5D0740006B
:1009E000000E0E401D0240002DE9F041204A18265D
:1009F000102118201A23013B1163FCD13B23013B3A
:100A00005163FCD10138F5D1013EF2D151634BF273
:100A1000CC10184DA847184F1022154B57F82640F8
:100A2000002024FA00F1C90716D5342101391A63D0
:100A3000FCD12C2101395A63FCD101301828F0D1A6
:100A40000136182EEAD10A4B10224BF2CC105A6311
:100A50002B46BDE8F04118471A2101391A63FCD131
:100A60003B2101395A63FCD101301828D9D1E7E77D
:100A7000000E0E4001004020C804402008B50C4B79
:100A8000102498470B4A4FF4004100200A4B516054
:100A900098470A4800230A494FF47F42446341F8CB
:100AA00023200133182BFAD1064B9847FEE700BFED
:100AB000AD01400050180E40BD094000000E0E4030
:100AC000C8044020E909400070B50F4E0F4D761B59
:100AD000B61018BF002405D0013455F8043B9847E0
:100AE000A642F9D10A4E0B4D761B00F095F9B610CF
:100AF00018BF002406D0013455F8043B9847A6429D
:100B0000F9D170BD70BD00BF240E4000240E40001E
:100B10002C0E4000240E4000844641EA000313F0EE
:100B200003036DD1403A41D351F8043B40F8043BF4
:100B300051F8043B40F8043B51F8043B40F8043BB7
:100B400051F8043B40F8043B51F8043B40F8043BA7
:100B500051F8043B40F8043B51F8043B40F8043B97
:100B600051F8043B40F8043B51F8043B40F8043B87
:100B700051F8043B40F8043B51F8043B40F8043B77
:100B800051F8043B40F8043B51F8043B40F8043B67
:100B900051F8043B40F8043B51F8043B40F8043B57
:100BA00051F8043B40F8043B403ABDD2303211D3F7
:100BB00051F8043B40F8043B51F8043B40F8043B37
:100BC00051F8043B40F8043B51F8043B40F8043B27
:100BD000103AEDD20C3205D351F8043B40F8043BF7
:100BE000043AF9D2043208D0D2071CBF11F8013BF5
:100BF00000F8013B01D30B8803806046704700BFBB
:100C0000082A13D38B078DD010F003038AD0C3F1C9
:100C10000403D21ADB071CBF11F8013B00F8013BAB
:100C200080D331F8023B20F8023B7BE7043AD9D36A
:100C3000013A11F8013B00F8013BF9D20B7803703F
:100C40004B7843708B7883706046704770B486072A
:100C500046D0541E002A41D0CAB2034602E014F125
:100C6000FF343BD303F8012B9D07F8D1032C2ED979
:100C7000CDB245EA05250F2C45EA054519D903F102
:100C800010022646103E0F2E42F8105C42F80C5C13
:100C900042F8085C42F8045C02F11002F2D8A4F1B8
:100CA000100222F00F0204F00F041032032C134440
:100CB0000DD91E462246043A032A46F8045BFAD8A8
:100CC000221F22F003020432134404F003042CB167
:100CD000C9B21C4403F8011B9C42FBD170BC704795
:100CE00014460346C2E700BF024B13B1024800F0AE
:100CF00005B8704700000000090D400000230146C0
:100D00001A46184600F01EB838B50A4C0A4D641B46
:100D1000A4100AD004F18043013B05EB8305013C9C
:100D200055F804399847002CF9D1BDE8384000F057
:100D30007DB800BF3C0E4000380E4000704700BF39
:100D4000704700BF2DE9F8432C4D064628689846A9
:100D50000F469146FFF7F2FF294B1C68D4F8483143
:100D6000002B3ED05A681F2A1CDC02F1010E76B11E
:100D700003EB82010124C1F88890D3F888019440E4
:100D80002043022EC3F88801C1F8088123D0023223
:100D9000C3F804E0286843F82270FFF7D1FF002071
:100DA000BDE8F883174B0BB34FF4C870AFF3008066
:100DB0000346D8B1D4F848210260002141600A46B8
:100DC000C4F848014FF0010EC0F88811C0F88C112A
:100DD000002EDCD0CCE7D3F88C110C43C3F88C4147
:100DE000D5E704F5A673C4F84831BBE72868FFF7D8
:100DF000A7FF4FF0FF30BDE8F88300BF3804402064
:100E0000140E40000000000000010000000300007C
:100E10000002000010004020F8B500BFF8BC08BC7C
:100E20009E467047E90C400065014000F8B500BFE0
:0C0E3000F8BC08BC9E4670474101400021
:100E3C00BFF35F8F0138FBD17047010000093D0003
:100E4C0000000000FC02402064034020CC03402042
:100E5C000000000000000000000000000000000086
:100E6C000000000000000000000000000000000076
:100E7C000000000000000000000000000000000066
:100E8C000000000000000000000000000000000056
:100E9C000000000000000000000000000000000046
:100EAC000000000000000000000000000000000036
:100EBC000000000000000000000000000000000026
:100ECC000000000000000000000000000000000016
:100EDC000000000000000000000000000000000006
:100EEC0000000000000000000100000000000000F5
:100EFC000E33CDAB34126DE6ECDE05000B000000BA
:100F0C0000000000000000000000000000000000D5
:100F1C0000000000000000000000000000000000C5
:100F2C0000000000000000000000000000000000B5
:100F3C0000000000000000000000000000000000A5
:0C126C00000000000000000028054020E9
:04000005004007A907
:00000001FF
